{
  "_format": "hh-sol-artifact-1",
  "contractName": "Gauge",
  "sourceName": "contracts/GaugeFactory.sol",
  "abi": [
    {
      "inputs": [
        {
          "internalType": "address",
          "name": "_voter",
          "type": "address"
        },
        {
          "internalType": "address",
          "name": "_stakingToken",
          "type": "address"
        }
      ],
      "stateMutability": "nonpayable",
      "type": "constructor"
    },
    {
      "anonymous": false,
      "inputs": [
        {
          "indexed": true,
          "internalType": "address",
          "name": "user",
          "type": "address"
        },
        {
          "indexed": false,
          "internalType": "uint256",
          "name": "amount",
          "type": "uint256"
        }
      ],
      "name": "Deposited",
      "type": "event"
    },
    {
      "anonymous": false,
      "inputs": [
        {
          "indexed": false,
          "internalType": "address",
          "name": "rewardToken",
          "type": "address"
        },
        {
          "indexed": false,
          "internalType": "uint256",
          "name": "reward",
          "type": "uint256"
        }
      ],
      "name": "RewardAdded",
      "type": "event"
    },
    {
      "anonymous": false,
      "inputs": [
        {
          "indexed": true,
          "internalType": "address",
          "name": "user",
          "type": "address"
        },
        {
          "indexed": true,
          "internalType": "address",
          "name": "rewardsToken",
          "type": "address"
        },
        {
          "indexed": false,
          "internalType": "uint256",
          "name": "reward",
          "type": "uint256"
        }
      ],
      "name": "RewardPaid",
      "type": "event"
    },
    {
      "anonymous": false,
      "inputs": [
        {
          "indexed": true,
          "internalType": "address",
          "name": "user",
          "type": "address"
        },
        {
          "indexed": false,
          "internalType": "uint256",
          "name": "amount",
          "type": "uint256"
        }
      ],
      "name": "Withdrawn",
      "type": "event"
    },
    {
      "inputs": [],
      "name": "DURATION",
      "outputs": [
        {
          "internalType": "uint256",
          "name": "",
          "type": "uint256"
        }
      ],
      "stateMutability": "view",
      "type": "function"
    },
    {
      "inputs": [
        {
          "internalType": "address",
          "name": "_rewardsToken",
          "type": "address"
        }
      ],
      "name": "addReward",
      "outputs": [],
      "stateMutability": "nonpayable",
      "type": "function"
    },
    {
      "inputs": [
        {
          "internalType": "address",
          "name": "account",
          "type": "address"
        }
      ],
      "name": "balanceOf",
      "outputs": [
        {
          "internalType": "uint256",
          "name": "",
          "type": "uint256"
        }
      ],
      "stateMutability": "view",
      "type": "function"
    },
    {
      "inputs": [
        {
          "internalType": "uint256",
          "name": "amount",
          "type": "uint256"
        }
      ],
      "name": "deposit",
      "outputs": [],
      "stateMutability": "nonpayable",
      "type": "function"
    },
    {
      "inputs": [
        {
          "internalType": "address",
          "name": "account",
          "type": "address"
        },
        {
          "internalType": "address",
          "name": "_rewardsToken",
          "type": "address"
        }
      ],
      "name": "earned",
      "outputs": [
        {
          "internalType": "uint256",
          "name": "",
          "type": "uint256"
        }
      ],
      "stateMutability": "view",
      "type": "function"
    },
    {
      "inputs": [
        {
          "internalType": "address",
          "name": "account",
          "type": "address"
        }
      ],
      "name": "getReward",
      "outputs": [],
      "stateMutability": "nonpayable",
      "type": "function"
    },
    {
      "inputs": [
        {
          "internalType": "address",
          "name": "_rewardsToken",
          "type": "address"
        }
      ],
      "name": "getRewardForDuration",
      "outputs": [
        {
          "internalType": "uint256",
          "name": "",
          "type": "uint256"
        }
      ],
      "stateMutability": "view",
      "type": "function"
    },
    {
      "inputs": [
        {
          "internalType": "address",
          "name": "",
          "type": "address"
        }
      ],
      "name": "isRewardToken",
      "outputs": [
        {
          "internalType": "bool",
          "name": "",
          "type": "bool"
        }
      ],
      "stateMutability": "view",
      "type": "function"
    },
    {
      "inputs": [
        {
          "internalType": "address",
          "name": "_rewardsToken",
          "type": "address"
        }
      ],
      "name": "lastTimeRewardApplicable",
      "outputs": [
        {
          "internalType": "uint256",
          "name": "",
          "type": "uint256"
        }
      ],
      "stateMutability": "view",
      "type": "function"
    },
    {
      "inputs": [
        {
          "internalType": "address",
          "name": "rewardToken",
          "type": "address"
        }
      ],
      "name": "left",
      "outputs": [
        {
          "internalType": "uint256",
          "name": "",
          "type": "uint256"
        }
      ],
      "stateMutability": "view",
      "type": "function"
    },
    {
      "inputs": [
        {
          "internalType": "address",
          "name": "_rewardsToken",
          "type": "address"
        },
        {
          "internalType": "uint256",
          "name": "reward",
          "type": "uint256"
        }
      ],
      "name": "notifyRewardAmount",
      "outputs": [],
      "stateMutability": "nonpayable",
      "type": "function"
    },
    {
      "inputs": [
        {
          "internalType": "address",
          "name": "",
          "type": "address"
        }
      ],
      "name": "rewardData",
      "outputs": [
        {
          "internalType": "uint256",
          "name": "periodFinish",
          "type": "uint256"
        },
        {
          "internalType": "uint256",
          "name": "rewardRate",
          "type": "uint256"
        },
        {
          "internalType": "uint256",
          "name": "lastUpdateTime",
          "type": "uint256"
        },
        {
          "internalType": "uint256",
          "name": "rewardPerTokenStored",
          "type": "uint256"
        }
      ],
      "stateMutability": "view",
      "type": "function"
    },
    {
      "inputs": [
        {
          "internalType": "address",
          "name": "_rewardsToken",
          "type": "address"
        }
      ],
      "name": "rewardPerToken",
      "outputs": [
        {
          "internalType": "uint256",
          "name": "",
          "type": "uint256"
        }
      ],
      "stateMutability": "view",
      "type": "function"
    },
    {
      "inputs": [
        {
          "internalType": "uint256",
          "name": "",
          "type": "uint256"
        }
      ],
      "name": "rewardTokens",
      "outputs": [
        {
          "internalType": "address",
          "name": "",
          "type": "address"
        }
      ],
      "stateMutability": "view",
      "type": "function"
    },
    {
      "inputs": [
        {
          "internalType": "address",
          "name": "",
          "type": "address"
        },
        {
          "internalType": "address",
          "name": "",
          "type": "address"
        }
      ],
      "name": "rewards",
      "outputs": [
        {
          "internalType": "uint256",
          "name": "",
          "type": "uint256"
        }
      ],
      "stateMutability": "view",
      "type": "function"
    },
    {
      "inputs": [],
      "name": "stakingToken",
      "outputs": [
        {
          "internalType": "contract IERC20",
          "name": "",
          "type": "address"
        }
      ],
      "stateMutability": "view",
      "type": "function"
    },
    {
      "inputs": [],
      "name": "totalSupply",
      "outputs": [
        {
          "internalType": "uint256",
          "name": "",
          "type": "uint256"
        }
      ],
      "stateMutability": "view",
      "type": "function"
    },
    {
      "inputs": [
        {
          "internalType": "address",
          "name": "",
          "type": "address"
        },
        {
          "internalType": "address",
          "name": "",
          "type": "address"
        }
      ],
      "name": "userRewardPerTokenPaid",
      "outputs": [
        {
          "internalType": "uint256",
          "name": "",
          "type": "uint256"
        }
      ],
      "stateMutability": "view",
      "type": "function"
    },
    {
      "inputs": [],
      "name": "voter",
      "outputs": [
        {
          "internalType": "address",
          "name": "",
          "type": "address"
        }
      ],
      "stateMutability": "view",
      "type": "function"
    },
    {
      "inputs": [
        {
          "internalType": "uint256",
          "name": "amount",
          "type": "uint256"
        }
      ],
      "name": "withdraw",
      "outputs": [],
      "stateMutability": "nonpayable",
      "type": "function"
    }
  ],
  "bytecode": "0x608060405234801561001057600080fd5b506040516200167c3803806200167c83398101604081905261003191610085565b60016000819055600280546001600160a01b03199081166001600160a01b0394851617909155815416929091169190911790556100b8565b80516001600160a01b038116811461008057600080fd5b919050565b6000806040838503121561009857600080fd5b6100a183610069565b91506100af60208401610069565b90509250929050565b6115b480620000c86000396000f3fe608060405234801561001057600080fd5b506004361061012c5760003560e01c80637bb7bed1116100ad578063b6b55f2511610071578063b6b55f25146102f5578063bcd1101414610308578063c00007b01461031b578063e70b9e271461032e578063f12297771461035957600080fd5b80637bb7bed11461027657806399bcc052146102895780639c9b2e211461029c578063b5fd73f8146102af578063b66503cf146102e257600080fd5b806348e5d9f8116100f457806348e5d9f8146101a5578063638634ee146101fc5780637035ab981461020f57806370a082311461023a57806372f702f31461026357600080fd5b806318160ddd146101315780631be0528914610148578063211dc32d146101525780632e1a7d4d1461016557806346c96aac1461017a575b600080fd5b6008545b6040519081526020015b60405180910390f35b61013562093a8081565b6101356101603660046113a4565b61036c565b6101786101733660046113d7565b610404565b005b60015461018d906001600160a01b031681565b6040516001600160a01b03909116815260200161013f565b6101dc6101b33660046113f0565b600360208190526000918252604090912080546001820154600283015492909301549092919084565b60408051948552602085019390935291830152606082015260800161013f565b61013561020a3660046113f0565b61066e565b61013561021d3660046113a4565b600660209081526000928352604080842090915290825290205481565b6101356102483660046113f0565b6001600160a01b031660009081526009602052604090205490565b60025461018d906001600160a01b031681565b61018d6102843660046113d7565b610698565b6101356102973660046113f0565b6106c2565b6101786102aa3660046113f0565b610736565b6102d26102bd3660046113f0565b60046020526000908152604090205460ff1681565b604051901515815260200161013f565b6101786102f036600461140b565b610860565b6101786103033660046113d7565b610b35565b6101356103163660046113f0565b610d87565b6101786103293660046113f0565b610db1565b61013561033c3660046113a4565b600760209081526000928352604080842090915290825290205481565b6101356103673660046113f0565b611057565b6001600160a01b038083166000818152600760209081526040808320948616808452948252808320549383526006825280832094835293905291822054670de0b6b3a7640000906103bc85611057565b6103c6919061144b565b6001600160a01b0386166000908152600960205260409020546103e99190611462565b6103f39190611481565b6103fd91906114a3565b9392505050565b60026000540361042f5760405162461bcd60e51b8152600401610426906114bb565b60405180910390fd5b6002600090815533905b60055481101561052e57600060058281548110610458576104586114f2565b6000918252602090912001546001600160a01b0316905061047881611057565b6001600160a01b0382166000908152600360208190526040909120015561049e8161066e565b6001600160a01b0380831660009081526003602052604090206002019190915583161561051b576104cf838261036c565b6001600160a01b03808516600081815260076020908152604080832094871680845294825280832095909555600380825285832001549282526006815284822093825292909252919020555b508061052681611508565b915050610439565b50600082116105735760405162461bcd60e51b8152602060048201526011602482015270043616e6e6f74207769746864726177203607c1b6044820152606401610426565b81600854610581919061144b565b6008553360009081526009602052604090205461059f90839061144b565b336000818152600960205260409020919091556002546105cb916001600160a01b039091169084611109565b60015460405163b014da2160e01b8152336004820152602481018490526001600160a01b039091169063b014da2190604401600060405180830381600087803b15801561061757600080fd5b505af115801561062b573d6000803e3d6000fd5b50506040518481523392507f7084f5476618d8e60b11ef0d7d3f06914655adb8793e28ff7f018d4c76d505d591506020015b60405180910390a250506001600055565b6001600160a01b038116600090815260036020526040812054610692904290611171565b92915050565b600581815481106106a857600080fd5b6000918252602090912001546001600160a01b0316905081565b6001600160a01b03811660009081526003602052604081205442106106e957506000919050565b6001600160a01b03821660009081526003602052604081205461070d90429061144b565b6001600160a01b0384166000908152600360205260409020600101549091506103fd9082611462565b6001546001600160a01b031633146107905760405162461bcd60e51b815260206004820181905260248201527f6164645265776172643a207065726d697373696f6e2069732064656e696564216044820152606401610426565b6001600160a01b03811660009081526004602052604090205460ff16156107f95760405162461bcd60e51b815260206004820152601b60248201527f52657761726420746f6b656e20616c72656164792065786973747300000000006044820152606401610426565b6005805460018181019092557f036b6384b5eca791c62761152d0c79bb0604c104a5fb6f4eb0703f3154bb3db00180546001600160a01b039093166001600160a01b031990931683179055600091825260046020526040909120805460ff19169091179055565b6000805b60055481101561095957600060058281548110610883576108836114f2565b6000918252602090912001546001600160a01b031690506108a381611057565b6001600160a01b038216600090815260036020819052604090912001556108c98161066e565b6001600160a01b03808316600090815260036020526040902060020191909155831615610946576108fa838261036c565b6001600160a01b03808516600081815260076020908152604080832094871680845294825280832095909555600380825285832001549282526006815284822093825292909252919020555b508061095181611508565b915050610864565b506001600160a01b03831660009081526004602052604090205460ff166109c25760405162461bcd60e51b815260206004820152601960248201527f72657761726420746f6b656e206e6f74207665726966696564000000000000006044820152606401610426565b6109d76001600160a01b038416333085611187565b6001600160a01b0383166000908152600360205260409020544210610a2457610a0362093a8083611481565b6001600160a01b038416600090815260036020526040902060010155610aab565b6001600160a01b038316600090815260036020526040812054610a4890429061144b565b6001600160a01b03851660009081526003602052604081206001015491925090610a729083611462565b905062093a80610a8282866114a3565b610a8c9190611481565b6001600160a01b03861660009081526003602052604090206001015550505b6001600160a01b0383166000908152600360205260409020426002909101819055610ada9062093a80906114a3565b6001600160a01b0384166000818152600360209081526040918290209390935580519182529181018490527fac24935fd910bc682b5ccb1a07b718cadf8cf2f6d1404c4f3ddc3662dae40e29910160405180910390a1505050565b600260005403610b575760405162461bcd60e51b8152600401610426906114bb565b6002600090815533905b600554811015610c5657600060058281548110610b8057610b806114f2565b6000918252602090912001546001600160a01b03169050610ba081611057565b6001600160a01b03821660009081526003602081905260409091200155610bc68161066e565b6001600160a01b03808316600090815260036020526040902060020191909155831615610c4357610bf7838261036c565b6001600160a01b03808516600081815260076020908152604080832094871680845294825280832095909555600380825285832001549282526006815284822093825292909252919020555b5080610c4e81611508565b915050610b61565b5060008211610c985760405162461bcd60e51b815260206004820152600e60248201526d043616e6e6f74207374616b6520360941b6044820152606401610426565b81600854610ca691906114a3565b60085533600090815260096020526040902054610cc49083906114a3565b33600081815260096020526040902091909155600254610cf1916001600160a01b03909116903085611187565b60015460405163145d426560e11b8152336004820152602481018490526001600160a01b03909116906328ba84ca90604401600060405180830381600087803b158015610d3d57600080fd5b505af1158015610d51573d6000803e3d6000fd5b50506040518481523392507f2da466a7b24304f47e87fa2e1e5a81b9831ce54fec19055ce277ca2f39ba42c4915060200161065d565b6001600160a01b0381166000908152600360205260408120600101546106929062093a8090611462565b600260005403610dd35760405162461bcd60e51b8152600401610426906114bb565b6002600090815581905b600554811015610ed257600060058281548110610dfc57610dfc6114f2565b6000918252602090912001546001600160a01b03169050610e1c81611057565b6001600160a01b03821660009081526003602081905260409091200155610e428161066e565b6001600160a01b03808316600090815260036020526040902060020191909155831615610ebf57610e73838261036c565b6001600160a01b03808516600081815260076020908152604080832094871680845294825280832095909555600380825285832001549282526006815284822093825292909252919020555b5080610eca81611508565b915050610ddd565b50336001600160a01b0383161480610ef457506001546001600160a01b031633145b610efd57600080fd5b6001546040516363453ae160e01b81523060048201526001600160a01b03909116906363453ae190602401600060405180830381600087803b158015610f4257600080fd5b505af1158015610f56573d6000803e3d6000fd5b5050505060005b60055481101561104d57600060058281548110610f7c57610f7c6114f2565b60009182526020808320909101546001600160a01b038781168452600783526040808520919092168085529252909120549091508015611038576001600160a01b03808616600090815260076020908152604080832093861680845293909152812055610fea908683611109565b816001600160a01b0316856001600160a01b03167f540798df468d7b23d11f156fdb954cb19ad414d150722a7b6d55ba369dea792e8360405161102f91815260200190565b60405180910390a35b5050808061104590611508565b915050610f5d565b5050600160005550565b600060085460000361108357506001600160a01b03166000908152600360208190526040909120015490565b6008546001600160a01b038316600090815260036020526040902060018101546002909101546110b28561066e565b6110bc919061144b565b6110c69190611462565b6110d890670de0b6b3a7640000611462565b6110e29190611481565b6001600160a01b0383166000908152600360208190526040909120015461069291906114a3565b6040516001600160a01b03831660248201526044810182905261116c90849063a9059cbb60e01b906064015b60408051601f198184030181529190526020810180516001600160e01b03166001600160e01b0319909316929092179091526111c5565b505050565b600081831061118057816103fd565b5090919050565b6040516001600160a01b03808516602483015283166044820152606481018290526111bf9085906323b872dd60e01b90608401611135565b50505050565b6111d7826001600160a01b031661134c565b6112235760405162461bcd60e51b815260206004820152601f60248201527f5361666545524332303a2063616c6c20746f206e6f6e2d636f6e7472616374006044820152606401610426565b600080836001600160a01b03168360405161123e9190611521565b6000604051808303816000865af19150503d806000811461127b576040519150601f19603f3d011682016040523d82523d6000602084013e611280565b606091505b5091509150816112d25760405162461bcd60e51b815260206004820181905260248201527f5361666545524332303a206c6f772d6c6576656c2063616c6c206661696c65646044820152606401610426565b8051156111bf57808060200190518101906112ed919061155c565b6111bf5760405162461bcd60e51b815260206004820152602a60248201527f5361666545524332303a204552433230206f7065726174696f6e20646964206e6044820152691bdd081cdd58d8d9595960b21b6064820152608401610426565b6000813f7fc5d2460186f7233c927e7db2dcc703c0e500b653ca82273b7bfad8045d85a47081158015906113805750808214155b949350505050565b80356001600160a01b038116811461139f57600080fd5b919050565b600080604083850312156113b757600080fd5b6113c083611388565b91506113ce60208401611388565b90509250929050565b6000602082840312156113e957600080fd5b5035919050565b60006020828403121561140257600080fd5b6103fd82611388565b6000806040838503121561141e57600080fd5b61142783611388565b946020939093013593505050565b634e487b7160e01b600052601160045260246000fd5b60008282101561145d5761145d611435565b500390565b600081600019048311821515161561147c5761147c611435565b500290565b60008261149e57634e487b7160e01b600052601260045260246000fd5b500490565b600082198211156114b6576114b6611435565b500190565b6020808252601f908201527f5265656e7472616e637947756172643a207265656e7472616e742063616c6c00604082015260600190565b634e487b7160e01b600052603260045260246000fd5b60006001820161151a5761151a611435565b5060010190565b6000825160005b818110156115425760208186018101518583015201611528565b81811115611551576000828501525b509190910192915050565b60006020828403121561156e57600080fd5b815180151581146103fd57600080fdfea2646970667358221220060dea97c935ede7382b229f1aded886bf7828a599d8783a32846589e32f4ca464736f6c634300080d0033",
  "linkReferences": {},
  "deployedLinkReferences": {}
}