{
  "_format": "hh-sol-artifact-1",
  "contractName": "Minter",
  "sourceName": "contracts/Minter.sol",
  "abi": [
    {
      "inputs": [
        {
          "internalType": "address",
          "name": "_voter",
          "type": "address"
        },
        {
          "internalType": "address",
          "name": "_SOUL",
          "type": "address"
        },
        {
          "internalType": "address",
          "name": "_vSOUL",
          "type": "address"
        },
        {
          "internalType": "address",
          "name": "_oSOUL",
          "type": "address"
        }
      ],
      "stateMutability": "nonpayable",
      "type": "constructor"
    },
    {
      "anonymous": false,
      "inputs": [
        {
          "indexed": true,
          "internalType": "address",
          "name": "sender",
          "type": "address"
        },
        {
          "indexed": false,
          "internalType": "uint256",
          "name": "weekly",
          "type": "uint256"
        },
        {
          "indexed": false,
          "internalType": "uint256",
          "name": "total_supply",
          "type": "uint256"
        },
        {
          "indexed": false,
          "internalType": "uint256",
          "name": "circulating_emission",
          "type": "uint256"
        }
      ],
      "name": "Mint",
      "type": "event"
    },
    {
      "inputs": [],
      "name": "GROWTH",
      "outputs": [
        {
          "internalType": "uint256",
          "name": "",
          "type": "uint256"
        }
      ],
      "stateMutability": "view",
      "type": "function"
    },
    {
      "inputs": [],
      "name": "MAX_TEAM_RATE",
      "outputs": [
        {
          "internalType": "uint256",
          "name": "",
          "type": "uint256"
        }
      ],
      "stateMutability": "view",
      "type": "function"
    },
    {
      "inputs": [],
      "name": "SOUL",
      "outputs": [
        {
          "internalType": "contract ISoul",
          "name": "",
          "type": "address"
        }
      ],
      "stateMutability": "view",
      "type": "function"
    },
    {
      "inputs": [],
      "name": "acceptTeam",
      "outputs": [],
      "stateMutability": "nonpayable",
      "type": "function"
    },
    {
      "inputs": [],
      "name": "active_period",
      "outputs": [
        {
          "internalType": "uint256",
          "name": "",
          "type": "uint256"
        }
      ],
      "stateMutability": "view",
      "type": "function"
    },
    {
      "inputs": [],
      "name": "calculate_emission",
      "outputs": [
        {
          "internalType": "uint256",
          "name": "",
          "type": "uint256"
        }
      ],
      "stateMutability": "view",
      "type": "function"
    },
    {
      "inputs": [
        {
          "internalType": "uint256",
          "name": "_minted",
          "type": "uint256"
        }
      ],
      "name": "calculate_growth",
      "outputs": [
        {
          "internalType": "uint256",
          "name": "",
          "type": "uint256"
        }
      ],
      "stateMutability": "pure",
      "type": "function"
    },
    {
      "inputs": [],
      "name": "circulating_emission",
      "outputs": [
        {
          "internalType": "uint256",
          "name": "",
          "type": "uint256"
        }
      ],
      "stateMutability": "view",
      "type": "function"
    },
    {
      "inputs": [],
      "name": "circulating_supply",
      "outputs": [
        {
          "internalType": "uint256",
          "name": "",
          "type": "uint256"
        }
      ],
      "stateMutability": "view",
      "type": "function"
    },
    {
      "inputs": [],
      "name": "initialize",
      "outputs": [],
      "stateMutability": "nonpayable",
      "type": "function"
    },
    {
      "inputs": [],
      "name": "oSOUL",
      "outputs": [
        {
          "internalType": "contract IOSoul",
          "name": "",
          "type": "address"
        }
      ],
      "stateMutability": "view",
      "type": "function"
    },
    {
      "inputs": [],
      "name": "pendingTeam",
      "outputs": [
        {
          "internalType": "address",
          "name": "",
          "type": "address"
        }
      ],
      "stateMutability": "view",
      "type": "function"
    },
    {
      "inputs": [
        {
          "internalType": "address",
          "name": "_team",
          "type": "address"
        }
      ],
      "name": "setTeam",
      "outputs": [],
      "stateMutability": "nonpayable",
      "type": "function"
    },
    {
      "inputs": [
        {
          "internalType": "uint256",
          "name": "_teamRate",
          "type": "uint256"
        }
      ],
      "name": "setTeamRate",
      "outputs": [],
      "stateMutability": "nonpayable",
      "type": "function"
    },
    {
      "inputs": [],
      "name": "team",
      "outputs": [
        {
          "internalType": "address",
          "name": "",
          "type": "address"
        }
      ],
      "stateMutability": "view",
      "type": "function"
    },
    {
      "inputs": [],
      "name": "teamRate",
      "outputs": [
        {
          "internalType": "uint256",
          "name": "",
          "type": "uint256"
        }
      ],
      "stateMutability": "view",
      "type": "function"
    },
    {
      "inputs": [],
      "name": "update_period",
      "outputs": [
        {
          "internalType": "uint256",
          "name": "",
          "type": "uint256"
        }
      ],
      "stateMutability": "nonpayable",
      "type": "function"
    },
    {
      "inputs": [],
      "name": "vSOUL",
      "outputs": [
        {
          "internalType": "contract IVSoul",
          "name": "",
          "type": "address"
        }
      ],
      "stateMutability": "view",
      "type": "function"
    },
    {
      "inputs": [],
      "name": "voter",
      "outputs": [
        {
          "internalType": "contract IVoter",
          "name": "",
          "type": "address"
        }
      ],
      "stateMutability": "view",
      "type": "function"
    },
    {
      "inputs": [],
      "name": "weekly",
      "outputs": [
        {
          "internalType": "uint256",
          "name": "",
          "type": "uint256"
        }
      ],
      "stateMutability": "view",
      "type": "function"
    },
    {
      "inputs": [],
      "name": "weekly_emission",
      "outputs": [
        {
          "internalType": "uint256",
          "name": "",
          "type": "uint256"
        }
      ],
      "stateMutability": "view",
      "type": "function"
    }
  ],
  "bytecode": "0x610100604052683635c9adc5dea000006000553480156200001f57600080fd5b5060405162000e8438038062000e848339810160408190526200004291620000e8565b60028054336001600160a01b03199182168117835560038054909216179055601e6005556001600160a01b0385811660805284811660a05283811660c052821660e05262093a80908190620000999082906200015b565b620000a590426200017d565b620000b1919062000198565b620000bd91906200015b565b60015550620001bb92505050565b80516001600160a01b0381168114620000e357600080fd5b919050565b60008060008060808587031215620000ff57600080fd5b6200010a85620000cb565b93506200011a60208601620000cb565b92506200012a60408601620000cb565b91506200013a60608601620000cb565b905092959194509250565b634e487b7160e01b600052601160045260246000fd5b600081600019048311821515161562000178576200017862000145565b500290565b6000821982111562000193576200019362000145565b500190565b600082620001b657634e487b7160e01b600052601260045260246000fd5b500490565b60805160a05160c05160e051610c42620002426000396000818161025d01528181610640015281816106bf0152818161077701528181610835015281816108ba015261095d01526000818161015c0152818161080601526108e901526000818161029d01526104ee0152600081816101dc0152818161098c0152610a260152610c426000f3fe608060405234801561001057600080fd5b50600436106101375760003560e01c80638129fc1c116100b8578063c633a6721161007c578063c633a67214610258578063cfc6c8ff1461027f578063d139960814610287578063e038c75a14610290578063e402ceeb14610298578063ed29fc11146102bf57600080fd5b80638129fc1c1461021a57806384e4dbb91461022257806385f2aef21461022a5780638e01fbfa1461023d578063b5cc143a1461025057600080fd5b80632e8f7b1f116100ff5780632e8f7b1f146101bc57806336d96faf146101cf57806346c96aac146101d757806359d46ffc146101fe57806378ef7f021461021157600080fd5b806301c8e6fd1461013c57806307760eac14610157578063095cf5c6146101965780631eebae80146101ab57806326cfc17b146101b3575b600080fd5b610144603281565b6040519081526020015b60405180910390f35b61017e7f000000000000000000000000000000000000000000000000000000000000000081565b6040516001600160a01b03909116815260200161014e565b6101a96101a4366004610b09565b6102c7565b005b610144610333565b61014460005481565b6101a96101ca366004610b32565b61035b565b6101446103e6565b61017e7f000000000000000000000000000000000000000000000000000000000000000081565b60045461017e906001600160a01b031681565b61014460055481565b6101a96103fb565b610144606481565b60035461017e906001600160a01b031681565b61014461024b366004610b32565b61043f565b6101a961045f565b61017e7f000000000000000000000000000000000000000000000000000000000000000081565b6101446104d0565b61014460015481565b6101446104ea565b61017e7f000000000000000000000000000000000000000000000000000000000000000081565b61014461056e565b6003546001600160a01b031633146103115760405162461bcd60e51b81526020600482015260086024820152676e6f74207465616d60c01b60448201526064015b60405180910390fd5b600480546001600160a01b0319166001600160a01b0392909216919091179055565b60006103e860016103426104ea565b61034c9190610b61565b6103569190610b80565b905090565b6003546001600160a01b031633146103a05760405162461bcd60e51b81526020600482015260086024820152676e6f74207465616d60c01b6044820152606401610308565b60328111156103e15760405162461bcd60e51b815260206004820152600d60248201526c0e4c2e8ca40e8dede40d0d2ced609b1b6044820152606401610308565b600555565b60006103e86103de60005461034c9190610b61565b6002546001600160a01b0316331461041257600080fd5b600280546001600160a01b031916905562093a806104308142610b80565b61043a9190610b61565b600155565b60006103e861044f606484610b61565b6104599190610b80565b92915050565b6004546001600160a01b031633146104ac5760405162461bcd60e51b815260206004820152601060248201526f6e6f742070656e64696e67207465616d60801b6044820152606401610308565b600454600380546001600160a01b0319166001600160a01b03909216919091179055565b60006103566104dd6103e6565b6104e5610333565b610af0565b60007f00000000000000000000000000000000000000000000000000000000000000006001600160a01b03166318160ddd6040518163ffffffff1660e01b8152600401602060405180830381865afa15801561054a573d6000803e3d6000fd5b505050506040513d601f19601f820116820180604052508101906103569190610ba2565b60015460009061058162093a8082610bbb565b421015801561059957506002546001600160a01b0316155b15610aeb5762093a806105ac8142610b80565b6105b69190610b61565b600181905590506105c56104d0565b6000818155906105d49061043f565b905060006103e8600054836105e99190610bbb565b6005546105f69190610b61565b6106009190610b80565b9050600081600054846106139190610bbb565b61061d9190610bbb565b6040516370a0823160e01b81523060048201529091506000906001600160a01b037f000000000000000000000000000000000000000000000000000000000000000016906370a0823190602401602060405180830381865afa158015610687573d6000803e3d6000fd5b505050506040513d601f19601f820116820180604052508101906106ab9190610ba2565b90508181101561074e576001600160a01b037f0000000000000000000000000000000000000000000000000000000000000000166340c10f19306106ef8486610bd3565b6040516001600160e01b031960e085901b1681526001600160a01b0390921660048301526024820152604401600060405180830381600087803b15801561073557600080fd5b505af1158015610749573d6000803e3d6000fd5b505050505b60035460405163a9059cbb60e01b81526001600160a01b039182166004820152602481018590527f00000000000000000000000000000000000000000000000000000000000000009091169063a9059cbb906044016020604051808303816000875af11580156107c2573d6000803e3d6000fd5b505050506040513d601f19601f820116820180604052508101906107e69190610bea565b6107ef57600080fd5b60405163095ea7b360e01b81526001600160a01b037f000000000000000000000000000000000000000000000000000000000000000081166004830152602482018690527f0000000000000000000000000000000000000000000000000000000000000000169063095ea7b3906044016020604051808303816000875af115801561087e573d6000803e3d6000fd5b505050506040513d601f19601f820116820180604052508101906108a29190610bea565b5060405163b66503cf60e01b81526001600160a01b037f000000000000000000000000000000000000000000000000000000000000000081166004830152602482018690527f0000000000000000000000000000000000000000000000000000000000000000169063b66503cf90604401600060405180830381600087803b15801561092d57600080fd5b505af1158015610941573d6000803e3d6000fd5b505060005460405163095ea7b360e01b81526001600160a01b037f000000000000000000000000000000000000000000000000000000000000000016935063095ea7b392506109c8917f0000000000000000000000000000000000000000000000000000000000000000916004016001600160a01b03929092168252602082015260400190565b6020604051808303816000875af11580156109e7573d6000803e3d6000fd5b505050506040513d601f19601f82011682018060405250810190610a0b9190610bea565b50600054604051633c6b16ab60e01b815260048101919091527f00000000000000000000000000000000000000000000000000000000000000006001600160a01b031690633c6b16ab90602401600060405180830381600087803b158015610a7257600080fd5b505af1158015610a86573d6000803e3d6000fd5b50505050336001600160a01b03167fb4c03061fb5b7fed76389d5af8f2e0ddb09f8c70d1333abbb62582835e10accb600054610ac06104ea565b610ac8610333565b6040805193845260208401929092529082015260600160405180910390a2505050505b919050565b600081831015610b005781610b02565b825b9392505050565b600060208284031215610b1b57600080fd5b81356001600160a01b0381168114610b0257600080fd5b600060208284031215610b4457600080fd5b5035919050565b634e487b7160e01b600052601160045260246000fd5b6000816000190483118215151615610b7b57610b7b610b4b565b500290565b600082610b9d57634e487b7160e01b600052601260045260246000fd5b500490565b600060208284031215610bb457600080fd5b5051919050565b60008219821115610bce57610bce610b4b565b500190565b600082821015610be557610be5610b4b565b500390565b600060208284031215610bfc57600080fd5b81518015158114610b0257600080fdfea26469706673582212201a7fab210af9068189627af3d91cb8b5a2361aaaf567ef9fc15c844bf7468f0764736f6c634300080d0033",
  "linkReferences": {},
  "deployedLinkReferences": {}
}