{
  "_format": "hh-sol-artifact-1",
  "contractName": "Multicall",
  "sourceName": "contracts/utilities/Multicall.sol",
  "abi": [
    {
      "inputs": [
        {
          "internalType": "address",
          "name": "_voter",
          "type": "address"
        },
        {
          "internalType": "address",
          "name": "_BASE",
          "type": "address"
        },
        {
          "internalType": "address",
          "name": "_TOKEN",
          "type": "address"
        },
        {
          "internalType": "address",
          "name": "_OTOKEN",
          "type": "address"
        },
        {
          "internalType": "address",
          "name": "_VTOKEN",
          "type": "address"
        },
        {
          "internalType": "address",
          "name": "_rewarder",
          "type": "address"
        }
      ],
      "stateMutability": "nonpayable",
      "type": "constructor"
    },
    {
      "inputs": [],
      "name": "BASE",
      "outputs": [
        {
          "internalType": "address",
          "name": "",
          "type": "address"
        }
      ],
      "stateMutability": "view",
      "type": "function"
    },
    {
      "inputs": [],
      "name": "DIVISOR",
      "outputs": [
        {
          "internalType": "uint256",
          "name": "",
          "type": "uint256"
        }
      ],
      "stateMutability": "view",
      "type": "function"
    },
    {
      "inputs": [],
      "name": "FEE",
      "outputs": [
        {
          "internalType": "uint256",
          "name": "",
          "type": "uint256"
        }
      ],
      "stateMutability": "view",
      "type": "function"
    },
    {
      "inputs": [],
      "name": "OTOKEN",
      "outputs": [
        {
          "internalType": "address",
          "name": "",
          "type": "address"
        }
      ],
      "stateMutability": "view",
      "type": "function"
    },
    {
      "inputs": [],
      "name": "PRECISION",
      "outputs": [
        {
          "internalType": "uint256",
          "name": "",
          "type": "uint256"
        }
      ],
      "stateMutability": "view",
      "type": "function"
    },
    {
      "inputs": [],
      "name": "TOKEN",
      "outputs": [
        {
          "internalType": "address",
          "name": "",
          "type": "address"
        }
      ],
      "stateMutability": "view",
      "type": "function"
    },
    {
      "inputs": [],
      "name": "VTOKEN",
      "outputs": [
        {
          "internalType": "address",
          "name": "",
          "type": "address"
        }
      ],
      "stateMutability": "view",
      "type": "function"
    },
    {
      "inputs": [
        {
          "internalType": "address",
          "name": "account",
          "type": "address"
        }
      ],
      "name": "bondingCurveData",
      "outputs": [
        {
          "components": [
            {
              "internalType": "uint256",
              "name": "priceBASE",
              "type": "uint256"
            },
            {
              "internalType": "uint256",
              "name": "priceTOKEN",
              "type": "uint256"
            },
            {
              "internalType": "uint256",
              "name": "priceOTOKEN",
              "type": "uint256"
            },
            {
              "internalType": "uint256",
              "name": "maxMarketSell",
              "type": "uint256"
            },
            {
              "internalType": "uint256",
              "name": "tvl",
              "type": "uint256"
            },
            {
              "internalType": "uint256",
              "name": "supplyTOKEN",
              "type": "uint256"
            },
            {
              "internalType": "uint256",
              "name": "supplyVTOKEN",
              "type": "uint256"
            },
            {
              "internalType": "uint256",
              "name": "apr",
              "type": "uint256"
            },
            {
              "internalType": "uint256",
              "name": "ltv",
              "type": "uint256"
            },
            {
              "internalType": "uint256",
              "name": "ratio",
              "type": "uint256"
            },
            {
              "internalType": "uint256",
              "name": "accountNATIVE",
              "type": "uint256"
            },
            {
              "internalType": "uint256",
              "name": "accountBASE",
              "type": "uint256"
            },
            {
              "internalType": "uint256",
              "name": "accountTOKEN",
              "type": "uint256"
            },
            {
              "internalType": "uint256",
              "name": "accountOTOKEN",
              "type": "uint256"
            },
            {
              "internalType": "uint256",
              "name": "accountEarnedBASE",
              "type": "uint256"
            },
            {
              "internalType": "uint256",
              "name": "accountEarnedTOKEN",
              "type": "uint256"
            },
            {
              "internalType": "uint256",
              "name": "accountEarnedOTOKEN",
              "type": "uint256"
            },
            {
              "internalType": "uint256",
              "name": "accountVTOKEN",
              "type": "uint256"
            },
            {
              "internalType": "uint256",
              "name": "accountVotingPower",
              "type": "uint256"
            },
            {
              "internalType": "uint256",
              "name": "accountUsedWeights",
              "type": "uint256"
            },
            {
              "internalType": "uint256",
              "name": "accountBorrowCredit",
              "type": "uint256"
            },
            {
              "internalType": "uint256",
              "name": "accountBorrowDebt",
              "type": "uint256"
            },
            {
              "internalType": "uint256",
              "name": "accountMaxWithdraw",
              "type": "uint256"
            },
            {
              "internalType": "uint256",
              "name": "accountLastVoted",
              "type": "uint256"
            }
          ],
          "internalType": "struct Multicall.BondingCurve",
          "name": "bondingCurve",
          "type": "tuple"
        }
      ],
      "stateMutability": "view",
      "type": "function"
    },
    {
      "inputs": [
        {
          "internalType": "address",
          "name": "plugin",
          "type": "address"
        },
        {
          "internalType": "address",
          "name": "account",
          "type": "address"
        }
      ],
      "name": "bribeCardData",
      "outputs": [
        {
          "components": [
            {
              "internalType": "address",
              "name": "plugin",
              "type": "address"
            },
            {
              "internalType": "address",
              "name": "bribe",
              "type": "address"
            },
            {
              "internalType": "bool",
              "name": "isAlive",
              "type": "bool"
            },
            {
              "internalType": "string",
              "name": "protocol",
              "type": "string"
            },
            {
              "internalType": "string",
              "name": "symbol",
              "type": "string"
            },
            {
              "internalType": "address[]",
              "name": "rewardTokens",
              "type": "address[]"
            },
            {
              "internalType": "uint8[]",
              "name": "rewardTokenDecimals",
              "type": "uint8[]"
            },
            {
              "internalType": "uint256[]",
              "name": "rewardsPerToken",
              "type": "uint256[]"
            },
            {
              "internalType": "uint256[]",
              "name": "accountRewardsEarned",
              "type": "uint256[]"
            },
            {
              "internalType": "uint256",
              "name": "voteWeight",
              "type": "uint256"
            },
            {
              "internalType": "uint256",
              "name": "votePercent",
              "type": "uint256"
            },
            {
              "internalType": "uint256",
              "name": "accountVotePercent",
              "type": "uint256"
            }
          ],
          "internalType": "struct Multicall.BribeCard",
          "name": "bribeCard",
          "type": "tuple"
        }
      ],
      "stateMutability": "view",
      "type": "function"
    },
    {
      "inputs": [
        {
          "internalType": "address",
          "name": "plugin",
          "type": "address"
        },
        {
          "internalType": "address",
          "name": "account",
          "type": "address"
        }
      ],
      "name": "gaugeCardData",
      "outputs": [
        {
          "components": [
            {
              "internalType": "address",
              "name": "plugin",
              "type": "address"
            },
            {
              "internalType": "address",
              "name": "underlying",
              "type": "address"
            },
            {
              "internalType": "uint8",
              "name": "underlyingDecimals",
              "type": "uint8"
            },
            {
              "internalType": "address",
              "name": "gauge",
              "type": "address"
            },
            {
              "internalType": "bool",
              "name": "isAlive",
              "type": "bool"
            },
            {
              "internalType": "string",
              "name": "protocol",
              "type": "string"
            },
            {
              "internalType": "string",
              "name": "symbol",
              "type": "string"
            },
            {
              "internalType": "address[]",
              "name": "tokensInUnderlying",
              "type": "address[]"
            },
            {
              "internalType": "uint256",
              "name": "priceUnderlying",
              "type": "uint256"
            },
            {
              "internalType": "uint256",
              "name": "priceOTOKEN",
              "type": "uint256"
            },
            {
              "internalType": "uint256",
              "name": "apr",
              "type": "uint256"
            },
            {
              "internalType": "uint256",
              "name": "tvl",
              "type": "uint256"
            },
            {
              "internalType": "uint256",
              "name": "votingWeight",
              "type": "uint256"
            },
            {
              "internalType": "uint256",
              "name": "totalSupply",
              "type": "uint256"
            },
            {
              "internalType": "uint256",
              "name": "accountUnderlyingBalance",
              "type": "uint256"
            },
            {
              "internalType": "uint256",
              "name": "accountStakedBalance",
              "type": "uint256"
            },
            {
              "internalType": "uint256",
              "name": "accountEarnedOTOKEN",
              "type": "uint256"
            }
          ],
          "internalType": "struct Multicall.GaugeCard",
          "name": "gaugeCard",
          "type": "tuple"
        }
      ],
      "stateMutability": "view",
      "type": "function"
    },
    {
      "inputs": [
        {
          "internalType": "uint256",
          "name": "start",
          "type": "uint256"
        },
        {
          "internalType": "uint256",
          "name": "stop",
          "type": "uint256"
        },
        {
          "internalType": "address",
          "name": "account",
          "type": "address"
        }
      ],
      "name": "getBribeCards",
      "outputs": [
        {
          "components": [
            {
              "internalType": "address",
              "name": "plugin",
              "type": "address"
            },
            {
              "internalType": "address",
              "name": "bribe",
              "type": "address"
            },
            {
              "internalType": "bool",
              "name": "isAlive",
              "type": "bool"
            },
            {
              "internalType": "string",
              "name": "protocol",
              "type": "string"
            },
            {
              "internalType": "string",
              "name": "symbol",
              "type": "string"
            },
            {
              "internalType": "address[]",
              "name": "rewardTokens",
              "type": "address[]"
            },
            {
              "internalType": "uint8[]",
              "name": "rewardTokenDecimals",
              "type": "uint8[]"
            },
            {
              "internalType": "uint256[]",
              "name": "rewardsPerToken",
              "type": "uint256[]"
            },
            {
              "internalType": "uint256[]",
              "name": "accountRewardsEarned",
              "type": "uint256[]"
            },
            {
              "internalType": "uint256",
              "name": "voteWeight",
              "type": "uint256"
            },
            {
              "internalType": "uint256",
              "name": "votePercent",
              "type": "uint256"
            },
            {
              "internalType": "uint256",
              "name": "accountVotePercent",
              "type": "uint256"
            }
          ],
          "internalType": "struct Multicall.BribeCard[]",
          "name": "",
          "type": "tuple[]"
        }
      ],
      "stateMutability": "view",
      "type": "function"
    },
    {
      "inputs": [
        {
          "internalType": "uint256",
          "name": "start",
          "type": "uint256"
        },
        {
          "internalType": "uint256",
          "name": "stop",
          "type": "uint256"
        },
        {
          "internalType": "address",
          "name": "account",
          "type": "address"
        }
      ],
      "name": "getGaugeCards",
      "outputs": [
        {
          "components": [
            {
              "internalType": "address",
              "name": "plugin",
              "type": "address"
            },
            {
              "internalType": "address",
              "name": "underlying",
              "type": "address"
            },
            {
              "internalType": "uint8",
              "name": "underlyingDecimals",
              "type": "uint8"
            },
            {
              "internalType": "address",
              "name": "gauge",
              "type": "address"
            },
            {
              "internalType": "bool",
              "name": "isAlive",
              "type": "bool"
            },
            {
              "internalType": "string",
              "name": "protocol",
              "type": "string"
            },
            {
              "internalType": "string",
              "name": "symbol",
              "type": "string"
            },
            {
              "internalType": "address[]",
              "name": "tokensInUnderlying",
              "type": "address[]"
            },
            {
              "internalType": "uint256",
              "name": "priceUnderlying",
              "type": "uint256"
            },
            {
              "internalType": "uint256",
              "name": "priceOTOKEN",
              "type": "uint256"
            },
            {
              "internalType": "uint256",
              "name": "apr",
              "type": "uint256"
            },
            {
              "internalType": "uint256",
              "name": "tvl",
              "type": "uint256"
            },
            {
              "internalType": "uint256",
              "name": "votingWeight",
              "type": "uint256"
            },
            {
              "internalType": "uint256",
              "name": "totalSupply",
              "type": "uint256"
            },
            {
              "internalType": "uint256",
              "name": "accountUnderlyingBalance",
              "type": "uint256"
            },
            {
              "internalType": "uint256",
              "name": "accountStakedBalance",
              "type": "uint256"
            },
            {
              "internalType": "uint256",
              "name": "accountEarnedOTOKEN",
              "type": "uint256"
            }
          ],
          "internalType": "struct Multicall.GaugeCard[]",
          "name": "",
          "type": "tuple[]"
        }
      ],
      "stateMutability": "view",
      "type": "function"
    },
    {
      "inputs": [
        {
          "internalType": "uint256",
          "name": "index",
          "type": "uint256"
        }
      ],
      "name": "getPlugin",
      "outputs": [
        {
          "internalType": "address",
          "name": "",
          "type": "address"
        }
      ],
      "stateMutability": "view",
      "type": "function"
    },
    {
      "inputs": [],
      "name": "getPlugins",
      "outputs": [
        {
          "internalType": "address[]",
          "name": "",
          "type": "address[]"
        }
      ],
      "stateMutability": "view",
      "type": "function"
    },
    {
      "inputs": [],
      "name": "priceBASE",
      "outputs": [
        {
          "internalType": "uint256",
          "name": "",
          "type": "uint256"
        }
      ],
      "stateMutability": "view",
      "type": "function"
    },
    {
      "inputs": [
        {
          "internalType": "address",
          "name": "",
          "type": "address"
        }
      ],
      "name": "prices",
      "outputs": [
        {
          "internalType": "uint256",
          "name": "",
          "type": "uint256"
        }
      ],
      "stateMutability": "view",
      "type": "function"
    },
    {
      "inputs": [
        {
          "internalType": "uint256",
          "name": "input",
          "type": "uint256"
        },
        {
          "internalType": "uint256",
          "name": "slippageTolerance",
          "type": "uint256"
        }
      ],
      "name": "quoteBuyIn",
      "outputs": [
        {
          "internalType": "uint256",
          "name": "output",
          "type": "uint256"
        },
        {
          "internalType": "uint256",
          "name": "slippage",
          "type": "uint256"
        },
        {
          "internalType": "uint256",
          "name": "minOutput",
          "type": "uint256"
        },
        {
          "internalType": "uint256",
          "name": "autoMinOutput",
          "type": "uint256"
        }
      ],
      "stateMutability": "view",
      "type": "function"
    },
    {
      "inputs": [
        {
          "internalType": "uint256",
          "name": "input",
          "type": "uint256"
        },
        {
          "internalType": "uint256",
          "name": "slippageTolerance",
          "type": "uint256"
        }
      ],
      "name": "quoteBuyOut",
      "outputs": [
        {
          "internalType": "uint256",
          "name": "output",
          "type": "uint256"
        },
        {
          "internalType": "uint256",
          "name": "slippage",
          "type": "uint256"
        },
        {
          "internalType": "uint256",
          "name": "minOutput",
          "type": "uint256"
        },
        {
          "internalType": "uint256",
          "name": "autoMinOutput",
          "type": "uint256"
        }
      ],
      "stateMutability": "view",
      "type": "function"
    },
    {
      "inputs": [
        {
          "internalType": "uint256",
          "name": "input",
          "type": "uint256"
        },
        {
          "internalType": "uint256",
          "name": "slippageTolerance",
          "type": "uint256"
        }
      ],
      "name": "quoteSellIn",
      "outputs": [
        {
          "internalType": "uint256",
          "name": "output",
          "type": "uint256"
        },
        {
          "internalType": "uint256",
          "name": "slippage",
          "type": "uint256"
        },
        {
          "internalType": "uint256",
          "name": "minOutput",
          "type": "uint256"
        },
        {
          "internalType": "uint256",
          "name": "autoMinOutput",
          "type": "uint256"
        }
      ],
      "stateMutability": "view",
      "type": "function"
    },
    {
      "inputs": [
        {
          "internalType": "uint256",
          "name": "input",
          "type": "uint256"
        },
        {
          "internalType": "uint256",
          "name": "slippageTolerance",
          "type": "uint256"
        }
      ],
      "name": "quoteSellOut",
      "outputs": [
        {
          "internalType": "uint256",
          "name": "output",
          "type": "uint256"
        },
        {
          "internalType": "uint256",
          "name": "slippage",
          "type": "uint256"
        },
        {
          "internalType": "uint256",
          "name": "minOutput",
          "type": "uint256"
        },
        {
          "internalType": "uint256",
          "name": "autoMinOutput",
          "type": "uint256"
        }
      ],
      "stateMutability": "view",
      "type": "function"
    },
    {
      "inputs": [],
      "name": "rewarder",
      "outputs": [
        {
          "internalType": "address",
          "name": "",
          "type": "address"
        }
      ],
      "stateMutability": "view",
      "type": "function"
    },
    {
      "inputs": [
        {
          "internalType": "address",
          "name": "_plugin",
          "type": "address"
        },
        {
          "internalType": "uint256",
          "name": "_price",
          "type": "uint256"
        }
      ],
      "name": "setPrice",
      "outputs": [],
      "stateMutability": "nonpayable",
      "type": "function"
    },
    {
      "inputs": [
        {
          "internalType": "uint256",
          "name": "_priceBASE",
          "type": "uint256"
        }
      ],
      "name": "setPriceBase",
      "outputs": [],
      "stateMutability": "nonpayable",
      "type": "function"
    },
    {
      "inputs": [],
      "name": "swapCardData",
      "outputs": [
        {
          "components": [
            {
              "internalType": "uint256",
              "name": "frBASE",
              "type": "uint256"
            },
            {
              "internalType": "uint256",
              "name": "mrvBASE",
              "type": "uint256"
            },
            {
              "internalType": "uint256",
              "name": "mrrBASE",
              "type": "uint256"
            },
            {
              "internalType": "uint256",
              "name": "mrrTOKEN",
              "type": "uint256"
            },
            {
              "internalType": "uint256",
              "name": "marketMaxTOKEN",
              "type": "uint256"
            }
          ],
          "internalType": "struct Multicall.SwapCard",
          "name": "swapCard",
          "type": "tuple"
        }
      ],
      "stateMutability": "view",
      "type": "function"
    },
    {
      "inputs": [],
      "name": "voter",
      "outputs": [
        {
          "internalType": "address",
          "name": "",
          "type": "address"
        }
      ],
      "stateMutability": "view",
      "type": "function"
    }
  ],
  "bytecode": "0x60806040523480156200001157600080fd5b506040516200341c3803806200341c8339810160408190526200003491620000a5565b600080546001600160a01b039586166001600160a01b031991821617909155600180549486169482169490941790935560028054928516928416929092179091556003805491909316911617905562000102565b80516001600160a01b0381168114620000a057600080fd5b919050565b60008060008060808587031215620000bc57600080fd5b620000c78562000088565b9350620000d76020860162000088565b9250620000e76040860162000088565b9150620000f76060860162000088565b905092959194509250565b61330a80620001126000396000f3fe608060405234801561001057600080fd5b506004361061010b5760003560e01c8063673a2a1f116100a2578063c633a67211610071578063c633a6721461034b578063c6ea59b91461035e578063d91b996214610384578063e402ceeb14610397578063fe313112146103aa57600080fd5b8063673a2a1f146102e25780637a12e531146102f757806384e883ef1461032557806389b96d4d1461033857600080fd5b8063226a8506116100de578063226a850614610279578063235052d61461029457806332fe7b26146102b457806346c96aac146102cf57600080fd5b806307760eac146101105780630bf5f590146101405780630d66951c14610160578063202c12b31461025e575b600080fd5b600254610123906001600160a01b031681565b6040516001600160a01b0390911681526020015b60405180910390f35b61015361014e366004612cff565b6103bd565b6040516101379190612dd8565b61017361016e366004612ead565b610d81565b6040516101379190815181526020808301519082015260408083015190820152606080830151908201526080808301519082015260a0808301519082015260c0808301519082015260e08083015190820152610100808301519082015261012080830151908201526101408083015190820152610160808301519082015261018080830151908201526101a080830151908201526101c080830151908201526101e08083015190820152610200808301519082015261022080830151908201526102408083015190820152610260808301519082015261028091820151918101919091526102a00190565b61012373b65ec550ff356eca6150f733ba9b954b2e0ca48881565b61012373826551890dc65655a0aceca109ab11abdbd7a07b81565b6102a76102a2366004612cff565b611c53565b6040516101379190612f01565b61012373a252eee9bde830ca4793f054b506587027825a8e81565b600054610123906001600160a01b031681565b6102ea612439565b6040516101379190612fc1565b61030a61030536600461300e565b6124af565b60408051938452602084019290925290820152606001610137565b61030a61033336600461300e565b612674565b61030a61034636600461300e565b6128b7565b600354610123906001600160a01b031681565b60408051808201825260048152636973736160e01b602082015290516101379190613030565b61030a61039236600461300e565b612aef565b600154610123906001600160a01b031681565b6101236103b8366004613043565b612c73565b6104216040518061018001604052806060815260200160608152602001606081526020016000815260200160008152602001600081526020016000815260200160008152602001600081526020016000815260200160008152602001600081525090565b826001600160a01b031663d16352af6040518163ffffffff1660e01b8152600401600060405180830381865afa15801561045f573d6000803e3d6000fd5b505050506040513d6000823e601f3d908101601f1916820160405261048791908101906130a3565b8160000181905250826001600160a01b03166395d89b416040518163ffffffff1660e01b8152600401600060405180830381865afa1580156104cd573d6000803e3d6000fd5b505050506040513d6000823e601f3d908101601f191682016040526104f591908101906130a3565b8160200181905250826001600160a01b031663b1942b166040518163ffffffff1660e01b8152600401600060405180830381865afa15801561053b573d6000803e3d6000fd5b505050506040513d6000823e601f3d908101601f191682016040526105639190810190613137565b8160400181905250826001600160a01b031663a035b1fe6040518163ffffffff1660e01b8152600401602060405180830381865afa1580156105a9573d6000803e3d6000fd5b505050506040513d601f19601f820116820180604052508101906105cd91906131e9565b606082015260405163fc57d4df60e01b815273b65ec550ff356eca6150f733ba9b954b2e0ca4886004820152670de0b6b3a76400009073a252eee9bde830ca4793f054b506587027825a8e9063fc57d4df90602401602060405180830381865afa15801561063f573d6000803e3d6000fd5b505050506040513d601f19601f8201168201806040525081019061066391906131e9565b600160009054906101000a90046001600160a01b03166001600160a01b031663c133cdf36040518163ffffffff1660e01b8152600401602060405180830381865afa1580156106b6573d6000803e3d6000fd5b505050506040513d601f19601f820116820180604052508101906106da91906131e9565b6106e49190613218565b6106ee9190613237565b60808201819052606082015160005460405163b9a09fd560e01b81526001600160a01b03878116600483015292936007939092169063b9a09fd590602401602060405180830381865afa158015610749573d6000803e3d6000fd5b505050506040513d601f19601f8201168201806040525081019061076d9190613259565b60035460405163f122977760e01b81526001600160a01b03918216600482015291169063f122977790602401602060405180830381865afa1580156107b6573d6000803e3d6000fd5b505050506040513d601f19601f820116820180604052508101906107da91906131e9565b6107e49190613218565b6107f09061016d613218565b6107fb906064613218565b6108059190613237565b61080f9190613237565b60a0820152606081015160005460405163b9a09fd560e01b81526001600160a01b038681166004830152670de0b6b3a76400009392169063b9a09fd590602401602060405180830381865afa15801561086c573d6000803e3d6000fd5b505050506040513d601f19601f820116820180604052508101906108909190613259565b6001600160a01b03166318160ddd6040518163ffffffff1660e01b8152600401602060405180830381865afa1580156108cd573d6000803e3d6000fd5b505050506040513d601f19601f820116820180604052508101906108f191906131e9565b6108fb9190613218565b6109059190613237565b60c0820152600054604080516396c82e5760e01b815290516001600160a01b03909216916396c82e57916004808201926020929091908290030181865afa158015610954573d6000803e3d6000fd5b505050506040513d601f19601f8201168201806040525081019061097891906131e9565b6000546040516353e5642360e11b81526001600160a01b0386811660048301529091169063a7cac84690602401602060405180830381865afa1580156109c2573d6000803e3d6000fd5b505050506040513d601f19601f820116820180604052508101906109e691906131e9565b6109f1906064613218565b610a0390670de0b6b3a7640000613218565b610a0d9190613237565b60e08201526001600160a01b03821615610af457826001600160a01b031663440f5fd26040518163ffffffff1660e01b8152600401602060405180830381865afa158015610a5f573d6000803e3d6000fd5b505050506040513d601f19601f82011682018060405250810190610a839190613259565b6040516370a0823160e01b81526001600160a01b03848116600483015291909116906370a0823190602401602060405180830381865afa158015610acb573d6000803e3d6000fd5b505050506040513d601f19601f82011682018060405250810190610aef91906131e9565b610af7565b60005b6101008201526001600160a01b03821615610b7b576040516370a0823160e01b81526001600160a01b0383811660048301528416906370a0823190602401602060405180830381865afa158015610b52573d6000803e3d6000fd5b505050506040513d601f19601f82011682018060405250810190610b7691906131e9565b610b7e565b60005b6101208201526001600160a01b03821615610c725760005460405163b9a09fd560e01b81526001600160a01b0385811660048301529091169063b9a09fd590602401602060405180830381865afa158015610bdd573d6000803e3d6000fd5b505050506040513d601f19601f82011682018060405250810190610c019190613259565b6040516370a0823160e01b81526001600160a01b03848116600483015291909116906370a0823190602401602060405180830381865afa158015610c49573d6000803e3d6000fd5b505050506040513d601f19601f82011682018060405250810190610c6d91906131e9565b610c75565b60005b6101408201526001600160a01b03821615610d725760005460405163b9a09fd560e01b81526001600160a01b0385811660048301529091169063b9a09fd590602401602060405180830381865afa158015610cd4573d6000803e3d6000fd5b505050506040513d601f19601f82011682018060405250810190610cf89190613259565b60035460405163211dc32d60e01b81526001600160a01b038581166004830152918216602482015291169063211dc32d90604401602060405180830381865afa158015610d49573d6000803e3d6000fd5b505050506040513d601f19601f82011682018060405250810190610d6d91906131e9565b610d75565b60005b61016082015292915050565b610e24604051806102a001604052806000815260200160008152602001600081526020016000815260200160008152602001600081526020016000815260200160008152602001600081526020016000815260200160008152602001600081526020016000815260200160008152602001600081526020016000815260200160008152602001600081526020016000815260200160008152602001600081525090565b60405163fc57d4df60e01b815273b65ec550ff356eca6150f733ba9b954b2e0ca488600482015273a252eee9bde830ca4793f054b506587027825a8e9063fc57d4df90602401602060405180830381865afa158015610e87573d6000803e3d6000fd5b505050506040513d601f19601f82011682018060405250810190610eab91906131e9565b80825260015460408051634e8da32560e11b81529051670de0b6b3a764000093926001600160a01b031691639d1b464a9160048083019260209291908290030181865afa158015610f00573d6000803e3d6000fd5b505050506040513d601f19601f82011682018060405250810190610f2491906131e9565b610f2e9190613218565b610f389190613237565b60208083019190915281516001546040805163c133cdf360e01b81529051670de0b6b3a7640000946001600160a01b039093169263c133cdf392600480820193918290030181865afa158015610f92573d6000803e3d6000fd5b505050506040513d601f19601f82011682018060405250810190610fb691906131e9565b610fc09190613218565b610fca9190613237565b60408083019190915260015481516370e6a58960e11b815291516001600160a01b039091169163e1cd4b129160048083019260209291908290030181865afa15801561101a573d6000803e3d6000fd5b505050506040513d601f19601f8201168201806040525081019061103e91906131e9565b6060820152805160015460408051637299470360e11b81529051670de0b6b3a764000093926001600160a01b03169163e5328e069160048083019260209291908290030181865afa158015611097573d6000803e3d6000fd5b505050506040513d601f19601f820116820180604052508101906110bb91906131e9565b6110c59190613218565b6110cf9190613237565b6080820152600154604080516318160ddd60e01b815290516001600160a01b03909216916318160ddd916004808201926020929091908290030181865afa15801561111e573d6000803e3d6000fd5b505050506040513d601f19601f8201168201806040525081019061114291906131e9565b60a08201526002546040805163c559f84360e01b815290516001600160a01b039092169163c559f843916004808201926020929091908290030181865afa158015611191573d6000803e3d6000fd5b505050506040513d601f19601f820116820180604052508101906111b591906131e9565b60c082015260208101516111ca906007613218565b604082810151600254600354925163f122977760e01b81526001600160a01b039384166004820152670de0b6b3a7640000939091169063f122977790602401602060405180830381865afa158015611226573d6000803e3d6000fd5b505050506040513d601f19601f8201168201806040525081019061124a91906131e9565b6112549190613218565b61125e9190613237565b602083015160025460015460405163f122977760e01b81526001600160a01b039182166004820152670de0b6b3a76400009392919091169063f122977790602401602060405180830381865afa1580156112bc573d6000803e3d6000fd5b505050506040513d601f19601f820116820180604052508101906112e091906131e9565b6112ea9190613218565b6112f49190613237565b835160025460405163f122977760e01b815273826551890dc65655a0aceca109ab11abdbd7a07b6004820152670de0b6b3a764000092916001600160a01b03169063f122977790602401602060405180830381865afa15801561135b573d6000803e3d6000fd5b505050506040513d601f19601f8201168201806040525081019061137f91906131e9565b6113899190613218565b6113939190613237565b61139d9190613276565b6113a79190613276565b6113b39061016d613218565b6113be906064613218565b6113d090670de0b6b3a7640000613218565b6113da9190613237565b60e082015260015460408051634e8da32560e11b815290516001600160a01b0390921691639d1b464a916004808201926020929091908290030181865afa158015611429573d6000803e3d6000fd5b505050506040513d601f19601f8201168201806040525081019061144d91906131e9565b600160009054906101000a90046001600160a01b03166001600160a01b0316639363c8126040518163ffffffff1660e01b8152600401602060405180830381865afa1580156114a0573d6000803e3d6000fd5b505050506040513d601f19601f820116820180604052508101906114c491906131e9565b6114cf906064613218565b6114e190670de0b6b3a7640000613218565b6114eb9190613237565b610100820152600154604080516349b1e40960e11b815290516001600160a01b0390921691639363c812916004808201926020929091908290030181865afa15801561153b573d6000803e3d6000fd5b505050506040513d601f19601f8201168201806040525081019061155f91906131e9565b600160009054906101000a90046001600160a01b03166001600160a01b0316639d1b464a6040518163ffffffff1660e01b8152600401602060405180830381865afa1580156115b2573d6000803e3d6000fd5b505050506040513d601f19601f820116820180604052508101906115d691906131e9565b6115e890670de0b6b3a7640000613218565b6115f29190613237565b6101208201526001600160a01b03821615611688576040516370a0823160e01b81526001600160a01b038316600482015273826551890dc65655a0aceca109ab11abdbd7a07b906370a0823190602401602060405180830381865afa15801561165f573d6000803e3d6000fd5b505050506040513d601f19601f8201168201806040525081019061168391906131e9565b61168b565b60005b6101408201526001600160a01b03821615611713576001546040516370a0823160e01b81526001600160a01b038481166004830152909116906370a0823190602401602060405180830381865afa1580156116ea573d6000803e3d6000fd5b505050506040513d601f19601f8201168201806040525081019061170e91906131e9565b611716565b60005b6101608201526001600160a01b0382161561179e576003546040516370a0823160e01b81526001600160a01b038481166004830152909116906370a0823190602401602060405180830381865afa158015611775573d6000803e3d6000fd5b505050506040513d601f19601f8201168201806040525081019061179991906131e9565b6117a1565b60005b6101808201526001600160a01b038216156118435760025460405163211dc32d60e01b81526001600160a01b03848116600483015273826551890dc65655a0aceca109ab11abdbd7a07b60248301529091169063211dc32d90604401602060405180830381865afa15801561181a573d6000803e3d6000fd5b505050506040513d601f19601f8201168201806040525081019061183e91906131e9565b611846565b60005b6101a08201526001600160a01b038216156118d85760025460015460405163211dc32d60e01b81526001600160a01b038581166004830152918216602482015291169063211dc32d90604401602060405180830381865afa1580156118af573d6000803e3d6000fd5b505050506040513d601f19601f820116820180604052508101906118d391906131e9565b6118db565b60005b6101c08201526001600160a01b0382161561196d5760025460035460405163211dc32d60e01b81526001600160a01b038581166004830152918216602482015291169063211dc32d90604401602060405180830381865afa158015611944573d6000803e3d6000fd5b505050506040513d601f19601f8201168201806040525081019061196891906131e9565b611970565b60005b6101e08201526001600160a01b038216156119f857600254604051631ed5c3b560e31b81526001600160a01b0384811660048301529091169063f6ae1da890602401602060405180830381865afa1580156119cf573d6000803e3d6000fd5b505050506040513d601f19601f820116820180604052508101906119f391906131e9565b6119fb565b60005b6102008201526001600160a01b03821615611a83576002546040516370a0823160e01b81526001600160a01b038481166004830152909116906370a0823190602401602060405180830381865afa158015611a5a573d6000803e3d6000fd5b505050506040513d601f19601f82011682018060405250810190611a7e91906131e9565b611a86565b60005b6102208201526001600160a01b03821615611b0e5760015460405163c6e5041360e01b81526001600160a01b0384811660048301529091169063c6e5041390602401602060405180830381865afa158015611ae5573d6000803e3d6000fd5b505050506040513d601f19601f82011682018060405250810190611b0991906131e9565b611b11565b60005b6102408201526001600160a01b03821615611b995760015460405163e6a706d160e01b81526001600160a01b0384811660048301529091169063e6a706d190602401602060405180830381865afa158015611b70573d6000803e3d6000fd5b505050506040513d601f19601f82011682018060405250810190611b9491906131e9565b611b9c565b60005b6102608201526001600160a01b03821615611c455760008054604051620be37960e21b81526001600160a01b03858116600483015290911690622f8de490602401602060405180830381865afa158015611bfa573d6000803e3d6000fd5b505050506040513d601f19601f82011682018060405250810190611c1e91906131e9565b11611c3e57806102600151816102000151611c39919061328e565b611c48565b6000611c48565b60005b610280820152919050565b611c9b60405180610100016040528060608152602001606081526020016060815260200160608152602001606081526020016000815260200160008152602001600081525090565b826001600160a01b031663d16352af6040518163ffffffff1660e01b8152600401600060405180830381865afa158015611cd9573d6000803e3d6000fd5b505050506040513d6000823e601f3d908101601f19168201604052611d0191908101906130a3565b8160000181905250826001600160a01b03166395d89b416040518163ffffffff1660e01b8152600401600060405180830381865afa158015611d47573d6000803e3d6000fd5b505050506040513d6000823e601f3d908101601f19168201604052611d6f91908101906130a3565b6020820152600054604051635462ecad60e11b81526001600160a01b0385811660048301529091169063a8c5d95a90602401602060405180830381865afa158015611dbe573d6000803e3d6000fd5b505050506040513d601f19601f82011682018060405250810190611de29190613259565b6001600160a01b031663c4f59f9b6040518163ffffffff1660e01b8152600401600060405180830381865afa158015611e1f573d6000803e3d6000fd5b505050506040513d6000823e601f3d908101601f19168201604052611e479190810190613137565b604082018190525160009067ffffffffffffffff811115611e6a57611e6a61305c565b604051908082528060200260200182016040528015611e93578160200160208202803683370190505b50905060005b826040015151811015611fdb57600054604051635462ecad60e11b81526001600160a01b0387811660048301529091169063a8c5d95a90602401602060405180830381865afa158015611ef0573d6000803e3d6000fd5b505050506040513d601f19601f82011682018060405250810190611f149190613259565b6001600160a01b031663f122977784604001518381518110611f3857611f386132a5565b60200260200101516040518263ffffffff1660e01b8152600401611f6b91906001600160a01b0391909116815260200190565b602060405180830381865afa158015611f88573d6000803e3d6000fd5b505050506040513d601f19601f82011682018060405250810190611fac91906131e9565b828281518110611fbe57611fbe6132a5565b602090810291909101015280611fd3816132bb565b915050611e99565b506060820181905260408201515160009067ffffffffffffffff8111156120045761200461305c565b60405190808252806020026020018201604052801561202d578160200160208202803683370190505b50905060005b836040015151811015612194576001600160a01b0385161561216257600054604051635462ecad60e11b81526001600160a01b0388811660048301529091169063a8c5d95a90602401602060405180830381865afa158015612099573d6000803e3d6000fd5b505050506040513d601f19601f820116820180604052508101906120bd9190613259565b6001600160a01b031663211dc32d86866040015184815181106120e2576120e26132a5565b60200260200101516040518363ffffffff1660e01b815260040161211c9291906001600160a01b0392831681529116602082015260400190565b602060405180830381865afa158015612139573d6000803e3d6000fd5b505050506040513d601f19601f8201168201806040525081019061215d91906131e9565b612165565b60005b828281518110612177576121776132a5565b60209081029190910101528061218c816132bb565b915050612033565b50608083018190526000546040516353e5642360e11b81526001600160a01b0387811660048301529091169063a7cac84690602401602060405180830381865afa1580156121e6573d6000803e3d6000fd5b505050506040513d601f19601f8201168201806040525081019061220a91906131e9565b60a0840152600054604080516396c82e5760e01b815290516001600160a01b03909216916396c82e57916004808201926020929091908290030181865afa158015612259573d6000803e3d6000fd5b505050506040513d601f19601f8201168201806040525081019061227d91906131e9565b6000546040516353e5642360e11b81526001600160a01b0388811660048301529091169063a7cac84690602401602060405180830381865afa1580156122c7573d6000803e3d6000fd5b505050506040513d601f19601f820116820180604052508101906122eb91906131e9565b6122f6906064613218565b61230890670de0b6b3a7640000613218565b6123129190613237565b60c08401526001600160a01b0384161561242957600054604051620be37960e21b81526001600160a01b03868116600483015290911690622f8de490602401602060405180830381865afa15801561236e573d6000803e3d6000fd5b505050506040513d601f19601f8201168201806040525081019061239291906131e9565b600054604051636568dc8360e11b81526001600160a01b03878116600483015288811660248301529091169063cad1b90690604401602060405180830381865afa1580156123e4573d6000803e3d6000fd5b505050506040513d601f19601f8201168201806040525081019061240891906131e9565b61241a90670de0b6b3a7640000613218565b6124249190613237565b61242c565b60005b60e0840152505092915050565b600080546040805163673a2a1f60e01b815290516060936001600160a01b039093169263673a2a1f92600480820193918290030181865afa158015612482573d6000803e3d6000fd5b505050506040513d6000823e601f3d908101601f191682016040526124aa9190810190613137565b905090565b600154604051632d438db360e21b815260048101849052600091829182916001600160a01b03169063b50e36cc90602401602060405180830381865afa1580156124fd573d6000803e3d6000fd5b505050506040513d601f19601f8201168201806040525081019061252191906131e9565b60015460408051634e8da32560e11b81529051670de0b6b3a7640000926001600160a01b031691639d1b464a9160048083019260209291908290030181865afa158015612572573d6000803e3d6000fd5b505050506040513d601f19601f8201168201806040525081019061259691906131e9565b600154604051632d438db360e21b8152600481018a90526001600160a01b039091169063b50e36cc90602401602060405180830381865afa1580156125df573d6000803e3d6000fd5b505050506040513d601f19601f8201168201806040525081019061260391906131e9565b61260d9190613218565b6126179190613237565b61262987670de0b6b3a7640000613218565b6126339190613237565b61264590670de0b6b3a764000061328e565b612650906064613218565b6103e861265d8789613218565b6126679190613237565b9250925092509250925092565b6001546040516328ce8fd160e01b815260048101849052600091829182916001600160a01b0316906328ce8fd190602401602060405180830381865afa1580156126c2573d6000803e3d6000fd5b505050506040513d601f19601f820116820180604052508101906126e691906131e9565b60015460408051634e8da32560e11b81529051670de0b6b3a7640000926001600160a01b031691639d1b464a9160048083019260209291908290030181865afa158015612737573d6000803e3d6000fd5b505050506040513d601f19601f8201168201806040525081019061275b91906131e9565b6127659088613218565b61276f9190613237565b6001546040516328ce8fd160e01b8152600481018990526001600160a01b03909116906328ce8fd190602401602060405180830381865afa1580156127b8573d6000803e3d6000fd5b505050506040513d601f19601f820116820180604052508101906127dc91906131e9565b6127ee90670de0b6b3a7640000613218565b6127f89190613237565b61280a90670de0b6b3a764000061328e565b612815906064613218565b6103e886670de0b6b3a7640000600160009054906101000a90046001600160a01b03166001600160a01b0316639d1b464a6040518163ffffffff1660e01b8152600401602060405180830381865afa158015612875573d6000803e3d6000fd5b505050506040513d601f19601f8201168201806040525081019061289991906131e9565b6128a3908b613218565b6128ad9190613237565b61265d9190613218565b600154604051631196743960e01b815260048101849052600091829182916001600160a01b031690631196743990602401602060405180830381865afa158015612905573d6000803e3d6000fd5b505050506040513d601f19601f8201168201806040525081019061292991906131e9565b600160009054906101000a90046001600160a01b03166001600160a01b0316639d1b464a6040518163ffffffff1660e01b8152600401602060405180830381865afa15801561297c573d6000803e3d6000fd5b505050506040513d601f19601f820116820180604052508101906129a091906131e9565b6129b287670de0b6b3a7640000613218565b6129bc9190613237565b600154604051631196743960e01b8152600481018990526001600160a01b0390911690631196743990602401602060405180830381865afa158015612a05573d6000803e3d6000fd5b505050506040513d601f19601f82011682018060405250810190612a2991906131e9565b612a3b90670de0b6b3a7640000613218565b612a459190613237565b612a5790670de0b6b3a764000061328e565b612a62906064613218565b6103e886600160009054906101000a90046001600160a01b03166001600160a01b0316639d1b464a6040518163ffffffff1660e01b8152600401602060405180830381865afa158015612ab9573d6000803e3d6000fd5b505050506040513d601f19601f82011682018060405250810190612add91906131e9565b6128a38a670de0b6b3a7640000613218565b6001546040516347347fb760e11b815260048101849052600091829182916001600160a01b031690638e68ff6e90602401602060405180830381865afa158015612b3d573d6000803e3d6000fd5b505050506040513d601f19601f82011682018060405250810190612b6191906131e9565b600160009054906101000a90046001600160a01b03166001600160a01b0316639d1b464a6040518163ffffffff1660e01b8152600401602060405180830381865afa158015612bb4573d6000803e3d6000fd5b505050506040513d601f19601f82011682018060405250810190612bd891906131e9565b6001546040516347347fb760e11b8152600481018990526001600160a01b0390911690638e68ff6e90602401602060405180830381865afa158015612c21573d6000803e3d6000fd5b505050506040513d601f19601f82011682018060405250810190612c4591906131e9565b612c5790670de0b6b3a7640000613218565b612c619190613237565b61262985670de0b6b3a7640000613218565b600080546040516315895f4760e31b8152600481018490526001600160a01b039091169063ac4afa3890602401602060405180830381865afa158015612cbd573d6000803e3d6000fd5b505050506040513d601f19601f82011682018060405250810190612ce19190613259565b92915050565b6001600160a01b0381168114612cfc57600080fd5b50565b60008060408385031215612d1257600080fd5b8235612d1d81612ce7565b91506020830135612d2d81612ce7565b809150509250929050565b60005b83811015612d53578181015183820152602001612d3b565b83811115612d62576000848401525b50505050565b60008151808452612d80816020860160208601612d38565b601f01601f19169290920160200192915050565b600081518084526020808501945080840160005b83811015612dcd5781516001600160a01b031687529582019590820190600101612da8565b509495945050505050565b6020815260008251610180806020850152612df76101a0850183612d68565b91506020850151601f1980868503016040870152612e158483612d68565b9350604087015191508086850301606087015250612e338382612d94565b92505060608501516080850152608085015160a085015260a085015160c085015260c085015160e085015260e0850151610100818187015280870151915050610120818187015280870151915050610140818187015280870151915050610160818187015280870151838701525050508091505092915050565b600060208284031215612ebf57600080fd5b8135612eca81612ce7565b9392505050565b600081518084526020808501945080840160005b83811015612dcd57815187529582019590820190600101612ee5565b6020815260008251610100806020850152612f20610120850183612d68565b91506020850151601f1980868503016040870152612f3e8483612d68565b93506040870151915080868503016060870152612f5b8483612d94565b93506060870151915080868503016080870152612f788483612ed1565b935060808701519150808685030160a087015250612f968382612ed1565b92505060a085015160c085015260c085015160e085015260e085015181850152508091505092915050565b6020808252825182820181905260009190848201906040850190845b818110156130025783516001600160a01b031683529284019291840191600101612fdd565b50909695505050505050565b6000806040838503121561302157600080fd5b50508035926020909101359150565b602081526000612eca6020830184612d68565b60006020828403121561305557600080fd5b5035919050565b634e487b7160e01b600052604160045260246000fd5b604051601f8201601f1916810167ffffffffffffffff8111828210171561309b5761309b61305c565b604052919050565b6000602082840312156130b557600080fd5b815167ffffffffffffffff808211156130cd57600080fd5b818401915084601f8301126130e157600080fd5b8151818111156130f3576130f361305c565b613106601f8201601f1916602001613072565b915080825285602082850101111561311d57600080fd5b61312e816020840160208601612d38565b50949350505050565b6000602080838503121561314a57600080fd5b825167ffffffffffffffff8082111561316257600080fd5b818501915085601f83011261317657600080fd5b8151818111156131885761318861305c565b8060051b9150613199848301613072565b81815291830184019184810190888411156131b357600080fd5b938501935b838510156131dd57845192506131cd83612ce7565b82825293850193908501906131b8565b98975050505050505050565b6000602082840312156131fb57600080fd5b5051919050565b634e487b7160e01b600052601160045260246000fd5b600081600019048311821515161561323257613232613202565b500290565b60008261325457634e487b7160e01b600052601260045260246000fd5b500490565b60006020828403121561326b57600080fd5b8151612eca81612ce7565b6000821982111561328957613289613202565b500190565b6000828210156132a0576132a0613202565b500390565b634e487b7160e01b600052603260045260246000fd5b6000600182016132cd576132cd613202565b506001019056fea26469706673582212204391d1ba50b3e35dafa10eda7cbdf1c2e35e3f0173899c0eaddb586297d8336764736f6c634300080d0033",
  "linkReferences": {},
  "deployedLinkReferences": {}
}