{
  "_format": "hh-sol-artifact-1",
  "contractName": "Multicall",
  "sourceName": "contracts/utilities/Multicall.sol",
  "abi": [
    {
      "inputs": [
        {
          "internalType": "address",
          "name": "_voter",
          "type": "address"
        },
        {
          "internalType": "address",
          "name": "_SOUL",
          "type": "address"
        },
        {
          "internalType": "address",
          "name": "_vSOUL",
          "type": "address"
        },
        {
          "internalType": "address",
          "name": "_oSOUL",
          "type": "address"
        }
      ],
      "stateMutability": "nonpayable",
      "type": "constructor"
    },
    {
      "inputs": [],
      "name": "ROUTER",
      "outputs": [
        {
          "internalType": "address",
          "name": "",
          "type": "address"
        }
      ],
      "stateMutability": "view",
      "type": "function"
    },
    {
      "inputs": [],
      "name": "SOUL",
      "outputs": [
        {
          "internalType": "address",
          "name": "",
          "type": "address"
        }
      ],
      "stateMutability": "view",
      "type": "function"
    },
    {
      "inputs": [],
      "name": "WCANTO",
      "outputs": [
        {
          "internalType": "address",
          "name": "",
          "type": "address"
        }
      ],
      "stateMutability": "view",
      "type": "function"
    },
    {
      "inputs": [
        {
          "internalType": "address",
          "name": "account",
          "type": "address"
        }
      ],
      "name": "bondingCurveData",
      "outputs": [
        {
          "components": [
            {
              "internalType": "uint256",
              "name": "priceWCANTO",
              "type": "uint256"
            },
            {
              "internalType": "uint256",
              "name": "priceSOUL",
              "type": "uint256"
            },
            {
              "internalType": "uint256",
              "name": "priceOSOUL",
              "type": "uint256"
            },
            {
              "internalType": "uint256",
              "name": "maxMarketSell",
              "type": "uint256"
            },
            {
              "internalType": "uint256",
              "name": "tvl",
              "type": "uint256"
            },
            {
              "internalType": "uint256",
              "name": "supplySOUL",
              "type": "uint256"
            },
            {
              "internalType": "uint256",
              "name": "supplyVSOUL",
              "type": "uint256"
            },
            {
              "internalType": "uint256",
              "name": "apr",
              "type": "uint256"
            },
            {
              "internalType": "uint256",
              "name": "ltv",
              "type": "uint256"
            },
            {
              "internalType": "uint256",
              "name": "ratio",
              "type": "uint256"
            },
            {
              "internalType": "uint256",
              "name": "accountWCANTO",
              "type": "uint256"
            },
            {
              "internalType": "uint256",
              "name": "accountSOUL",
              "type": "uint256"
            },
            {
              "internalType": "uint256",
              "name": "accountOSOUL",
              "type": "uint256"
            },
            {
              "internalType": "uint256",
              "name": "accountEarnedWCANTO",
              "type": "uint256"
            },
            {
              "internalType": "uint256",
              "name": "accountEarnedSOUL",
              "type": "uint256"
            },
            {
              "internalType": "uint256",
              "name": "accountEarnedOSOUL",
              "type": "uint256"
            },
            {
              "internalType": "uint256",
              "name": "accountVSOUL",
              "type": "uint256"
            },
            {
              "internalType": "uint256",
              "name": "accountVotingPower",
              "type": "uint256"
            },
            {
              "internalType": "uint256",
              "name": "accountBorrowCredit",
              "type": "uint256"
            },
            {
              "internalType": "uint256",
              "name": "accountBorrowDebt",
              "type": "uint256"
            },
            {
              "internalType": "uint256",
              "name": "accountMaxWithdraw",
              "type": "uint256"
            }
          ],
          "internalType": "struct Multicall.BondingCurve",
          "name": "bondingCurve",
          "type": "tuple"
        }
      ],
      "stateMutability": "view",
      "type": "function"
    },
    {
      "inputs": [
        {
          "internalType": "address",
          "name": "plugin",
          "type": "address"
        },
        {
          "internalType": "address",
          "name": "account",
          "type": "address"
        }
      ],
      "name": "bribeCardData",
      "outputs": [
        {
          "components": [
            {
              "internalType": "string",
              "name": "protocol",
              "type": "string"
            },
            {
              "internalType": "string",
              "name": "symbol",
              "type": "string"
            },
            {
              "internalType": "address[]",
              "name": "rewardTokens",
              "type": "address[]"
            },
            {
              "internalType": "uint256[]",
              "name": "rewardsPerToken",
              "type": "uint256[]"
            },
            {
              "internalType": "uint256[]",
              "name": "accountRewardsEarned",
              "type": "uint256[]"
            },
            {
              "internalType": "uint256",
              "name": "voteWeight",
              "type": "uint256"
            },
            {
              "internalType": "uint256",
              "name": "votePercent",
              "type": "uint256"
            },
            {
              "internalType": "uint256",
              "name": "accountVotePercent",
              "type": "uint256"
            }
          ],
          "internalType": "struct Multicall.BribeCard",
          "name": "bribeCard",
          "type": "tuple"
        }
      ],
      "stateMutability": "view",
      "type": "function"
    },
    {
      "inputs": [],
      "name": "cWCANTO",
      "outputs": [
        {
          "internalType": "address",
          "name": "",
          "type": "address"
        }
      ],
      "stateMutability": "view",
      "type": "function"
    },
    {
      "inputs": [
        {
          "internalType": "address",
          "name": "plugin",
          "type": "address"
        },
        {
          "internalType": "address",
          "name": "account",
          "type": "address"
        }
      ],
      "name": "gaugeCardData",
      "outputs": [
        {
          "components": [
            {
              "internalType": "string",
              "name": "protocol",
              "type": "string"
            },
            {
              "internalType": "string",
              "name": "symbol",
              "type": "string"
            },
            {
              "internalType": "address[]",
              "name": "tokensInUnderlying",
              "type": "address[]"
            },
            {
              "internalType": "uint256",
              "name": "pluginPrice",
              "type": "uint256"
            },
            {
              "internalType": "uint256",
              "name": "priceOSOUL",
              "type": "uint256"
            },
            {
              "internalType": "uint256",
              "name": "apr",
              "type": "uint256"
            },
            {
              "internalType": "uint256",
              "name": "tvl",
              "type": "uint256"
            },
            {
              "internalType": "uint256",
              "name": "votingWeight",
              "type": "uint256"
            },
            {
              "internalType": "uint256",
              "name": "accountUnderlyingTokens",
              "type": "uint256"
            },
            {
              "internalType": "uint256",
              "name": "accountUnstakedTokens",
              "type": "uint256"
            },
            {
              "internalType": "uint256",
              "name": "accountStakedTokens",
              "type": "uint256"
            },
            {
              "internalType": "uint256",
              "name": "accountEarnedOSOUL",
              "type": "uint256"
            }
          ],
          "internalType": "struct Multicall.GaugeCard",
          "name": "gaugeCard",
          "type": "tuple"
        }
      ],
      "stateMutability": "view",
      "type": "function"
    },
    {
      "inputs": [],
      "name": "getPools",
      "outputs": [
        {
          "internalType": "address[]",
          "name": "",
          "type": "address[]"
        }
      ],
      "stateMutability": "view",
      "type": "function"
    },
    {
      "inputs": [],
      "name": "oSOUL",
      "outputs": [
        {
          "internalType": "address",
          "name": "",
          "type": "address"
        }
      ],
      "stateMutability": "view",
      "type": "function"
    },
    {
      "inputs": [
        {
          "internalType": "uint256",
          "name": "index",
          "type": "uint256"
        }
      ],
      "name": "pool",
      "outputs": [
        {
          "internalType": "address",
          "name": "",
          "type": "address"
        }
      ],
      "stateMutability": "view",
      "type": "function"
    },
    {
      "inputs": [
        {
          "internalType": "uint256",
          "name": "input",
          "type": "uint256"
        },
        {
          "internalType": "uint256",
          "name": "slippageTolerance",
          "type": "uint256"
        }
      ],
      "name": "quoteBuyIn",
      "outputs": [
        {
          "internalType": "uint256",
          "name": "output",
          "type": "uint256"
        },
        {
          "internalType": "uint256",
          "name": "slippage",
          "type": "uint256"
        },
        {
          "internalType": "uint256",
          "name": "minOutput",
          "type": "uint256"
        }
      ],
      "stateMutability": "view",
      "type": "function"
    },
    {
      "inputs": [
        {
          "internalType": "uint256",
          "name": "input",
          "type": "uint256"
        },
        {
          "internalType": "uint256",
          "name": "slippageTolerance",
          "type": "uint256"
        }
      ],
      "name": "quoteBuyOut",
      "outputs": [
        {
          "internalType": "uint256",
          "name": "output",
          "type": "uint256"
        },
        {
          "internalType": "uint256",
          "name": "slippage",
          "type": "uint256"
        },
        {
          "internalType": "uint256",
          "name": "minOutput",
          "type": "uint256"
        }
      ],
      "stateMutability": "view",
      "type": "function"
    },
    {
      "inputs": [
        {
          "internalType": "uint256",
          "name": "input",
          "type": "uint256"
        },
        {
          "internalType": "uint256",
          "name": "slippageTolerance",
          "type": "uint256"
        }
      ],
      "name": "quoteSellIn",
      "outputs": [
        {
          "internalType": "uint256",
          "name": "output",
          "type": "uint256"
        },
        {
          "internalType": "uint256",
          "name": "slippage",
          "type": "uint256"
        },
        {
          "internalType": "uint256",
          "name": "minOutput",
          "type": "uint256"
        }
      ],
      "stateMutability": "view",
      "type": "function"
    },
    {
      "inputs": [
        {
          "internalType": "uint256",
          "name": "input",
          "type": "uint256"
        },
        {
          "internalType": "uint256",
          "name": "slippageTolerance",
          "type": "uint256"
        }
      ],
      "name": "quoteSellOut",
      "outputs": [
        {
          "internalType": "uint256",
          "name": "output",
          "type": "uint256"
        },
        {
          "internalType": "uint256",
          "name": "slippage",
          "type": "uint256"
        },
        {
          "internalType": "uint256",
          "name": "minOutput",
          "type": "uint256"
        }
      ],
      "stateMutability": "view",
      "type": "function"
    },
    {
      "inputs": [],
      "name": "vSOUL",
      "outputs": [
        {
          "internalType": "address",
          "name": "",
          "type": "address"
        }
      ],
      "stateMutability": "view",
      "type": "function"
    },
    {
      "inputs": [],
      "name": "voter",
      "outputs": [
        {
          "internalType": "address",
          "name": "",
          "type": "address"
        }
      ],
      "stateMutability": "view",
      "type": "function"
    }
  ],
  "bytecode": "0x60806040523480156200001157600080fd5b50604051620033d8380380620033d88339810160408190526200003491620000a5565b600080546001600160a01b039586166001600160a01b031991821617909155600180549486169482169490941790935560028054928516928416929092179091556003805491909316911617905562000102565b80516001600160a01b0381168114620000a057600080fd5b919050565b60008060008060808587031215620000bc57600080fd5b620000c78562000088565b9350620000d76020860162000088565b9250620000e76040860162000088565b9150620000f76060860162000088565b905092959194509250565b6132c680620001126000396000f3fe608060405234801561001057600080fd5b50600436106101005760003560e01c8063673a2a1f11610097578063c633a67211610066578063c633a67214610340578063d91b996214610353578063e402ceeb14610366578063fe3131121461037957600080fd5b8063673a2a1f146102d75780637a12e531146102ec57806384e883ef1461031a57806389b96d4d1461032d57600080fd5b8063226a8506116100d3578063226a85061461026e578063235052d61461028957806332fe7b26146102a957806346c96aac146102c457600080fd5b806307760eac146101055780630bf5f590146101355780630d66951c14610155578063202c12b314610253575b600080fd5b600254610118906001600160a01b031681565b6040516001600160a01b0390911681526020015b60405180910390f35b610148610143366004612cce565b61038c565b60405161012c9190612da7565b610168610163366004612e7c565b610d50565b60405161012c9190815181526020808301519082015260408083015190820152606080830151908201526080808301519082015260a0808301519082015260c0808301519082015260e08083015190820152610100808301519082015261012080830151908201526101408083015190820152610160808301519082015261018080830151908201526101a080830151908201526101c080830151908201526101e08083015190820152610200808301519082015261022080830151908201526102408083015190820152610260808301519082015261028091820151918101919091526102a00190565b61011873b65ec550ff356eca6150f733ba9b954b2e0ca48881565b61011873826551890dc65655a0aceca109ab11abdbd7a07b81565b61029c610297366004612cce565b611c22565b60405161012c9190612ed0565b61011873a252eee9bde830ca4793f054b506587027825a8e81565b600054610118906001600160a01b031681565b6102df612408565b60405161012c9190612f90565b6102ff6102fa366004612fdd565b61247e565b6040805193845260208401929092529082015260600161012c565b6102ff610328366004612fdd565b612643565b6102ff61033b366004612fdd565b612886565b600354610118906001600160a01b031681565b6102ff610361366004612fdd565b612abe565b600154610118906001600160a01b031681565b610118610387366004612fff565b612c42565b6103f06040518061018001604052806060815260200160608152602001606081526020016000815260200160008152602001600081526020016000815260200160008152602001600081526020016000815260200160008152602001600081525090565b826001600160a01b031663d16352af6040518163ffffffff1660e01b8152600401600060405180830381865afa15801561042e573d6000803e3d6000fd5b505050506040513d6000823e601f3d908101601f19168201604052610456919081019061305f565b8160000181905250826001600160a01b03166395d89b416040518163ffffffff1660e01b8152600401600060405180830381865afa15801561049c573d6000803e3d6000fd5b505050506040513d6000823e601f3d908101601f191682016040526104c4919081019061305f565b8160200181905250826001600160a01b031663b1942b166040518163ffffffff1660e01b8152600401600060405180830381865afa15801561050a573d6000803e3d6000fd5b505050506040513d6000823e601f3d908101601f1916820160405261053291908101906130f3565b8160400181905250826001600160a01b031663a035b1fe6040518163ffffffff1660e01b8152600401602060405180830381865afa158015610578573d6000803e3d6000fd5b505050506040513d601f19601f8201168201806040525081019061059c91906131a5565b606082015260405163fc57d4df60e01b815273b65ec550ff356eca6150f733ba9b954b2e0ca4886004820152670de0b6b3a76400009073a252eee9bde830ca4793f054b506587027825a8e9063fc57d4df90602401602060405180830381865afa15801561060e573d6000803e3d6000fd5b505050506040513d601f19601f8201168201806040525081019061063291906131a5565b600160009054906101000a90046001600160a01b03166001600160a01b031663c133cdf36040518163ffffffff1660e01b8152600401602060405180830381865afa158015610685573d6000803e3d6000fd5b505050506040513d601f19601f820116820180604052508101906106a991906131a5565b6106b391906131d4565b6106bd91906131f3565b60808201819052606082015160005460405163b9a09fd560e01b81526001600160a01b03878116600483015292936007939092169063b9a09fd590602401602060405180830381865afa158015610718573d6000803e3d6000fd5b505050506040513d601f19601f8201168201806040525081019061073c9190613215565b60035460405163f122977760e01b81526001600160a01b03918216600482015291169063f122977790602401602060405180830381865afa158015610785573d6000803e3d6000fd5b505050506040513d601f19601f820116820180604052508101906107a991906131a5565b6107b391906131d4565b6107bf9061016d6131d4565b6107ca9060646131d4565b6107d491906131f3565b6107de91906131f3565b60a0820152606081015160005460405163b9a09fd560e01b81526001600160a01b038681166004830152670de0b6b3a76400009392169063b9a09fd590602401602060405180830381865afa15801561083b573d6000803e3d6000fd5b505050506040513d601f19601f8201168201806040525081019061085f9190613215565b6001600160a01b03166318160ddd6040518163ffffffff1660e01b8152600401602060405180830381865afa15801561089c573d6000803e3d6000fd5b505050506040513d601f19601f820116820180604052508101906108c091906131a5565b6108ca91906131d4565b6108d491906131f3565b60c0820152600054604080516396c82e5760e01b815290516001600160a01b03909216916396c82e57916004808201926020929091908290030181865afa158015610923573d6000803e3d6000fd5b505050506040513d601f19601f8201168201806040525081019061094791906131a5565b6000546040516353e5642360e11b81526001600160a01b0386811660048301529091169063a7cac84690602401602060405180830381865afa158015610991573d6000803e3d6000fd5b505050506040513d601f19601f820116820180604052508101906109b591906131a5565b6109c09060646131d4565b6109d290670de0b6b3a76400006131d4565b6109dc91906131f3565b60e08201526001600160a01b03821615610ac357826001600160a01b031663440f5fd26040518163ffffffff1660e01b8152600401602060405180830381865afa158015610a2e573d6000803e3d6000fd5b505050506040513d601f19601f82011682018060405250810190610a529190613215565b6040516370a0823160e01b81526001600160a01b03848116600483015291909116906370a0823190602401602060405180830381865afa158015610a9a573d6000803e3d6000fd5b505050506040513d601f19601f82011682018060405250810190610abe91906131a5565b610ac6565b60005b6101008201526001600160a01b03821615610b4a576040516370a0823160e01b81526001600160a01b0383811660048301528416906370a0823190602401602060405180830381865afa158015610b21573d6000803e3d6000fd5b505050506040513d601f19601f82011682018060405250810190610b4591906131a5565b610b4d565b60005b6101208201526001600160a01b03821615610c415760005460405163b9a09fd560e01b81526001600160a01b0385811660048301529091169063b9a09fd590602401602060405180830381865afa158015610bac573d6000803e3d6000fd5b505050506040513d601f19601f82011682018060405250810190610bd09190613215565b6040516370a0823160e01b81526001600160a01b03848116600483015291909116906370a0823190602401602060405180830381865afa158015610c18573d6000803e3d6000fd5b505050506040513d601f19601f82011682018060405250810190610c3c91906131a5565b610c44565b60005b6101408201526001600160a01b03821615610d415760005460405163b9a09fd560e01b81526001600160a01b0385811660048301529091169063b9a09fd590602401602060405180830381865afa158015610ca3573d6000803e3d6000fd5b505050506040513d601f19601f82011682018060405250810190610cc79190613215565b60035460405163211dc32d60e01b81526001600160a01b038581166004830152918216602482015291169063211dc32d90604401602060405180830381865afa158015610d18573d6000803e3d6000fd5b505050506040513d601f19601f82011682018060405250810190610d3c91906131a5565b610d44565b60005b61016082015292915050565b610df3604051806102a001604052806000815260200160008152602001600081526020016000815260200160008152602001600081526020016000815260200160008152602001600081526020016000815260200160008152602001600081526020016000815260200160008152602001600081526020016000815260200160008152602001600081526020016000815260200160008152602001600081525090565b60405163fc57d4df60e01b815273b65ec550ff356eca6150f733ba9b954b2e0ca488600482015273a252eee9bde830ca4793f054b506587027825a8e9063fc57d4df90602401602060405180830381865afa158015610e56573d6000803e3d6000fd5b505050506040513d601f19601f82011682018060405250810190610e7a91906131a5565b80825260015460408051634e8da32560e11b81529051670de0b6b3a764000093926001600160a01b031691639d1b464a9160048083019260209291908290030181865afa158015610ecf573d6000803e3d6000fd5b505050506040513d601f19601f82011682018060405250810190610ef391906131a5565b610efd91906131d4565b610f0791906131f3565b60208083019190915281516001546040805163c133cdf360e01b81529051670de0b6b3a7640000946001600160a01b039093169263c133cdf392600480820193918290030181865afa158015610f61573d6000803e3d6000fd5b505050506040513d601f19601f82011682018060405250810190610f8591906131a5565b610f8f91906131d4565b610f9991906131f3565b60408083019190915260015481516370e6a58960e11b815291516001600160a01b039091169163e1cd4b129160048083019260209291908290030181865afa158015610fe9573d6000803e3d6000fd5b505050506040513d601f19601f8201168201806040525081019061100d91906131a5565b6060820152805160015460408051637299470360e11b81529051670de0b6b3a764000093926001600160a01b03169163e5328e069160048083019260209291908290030181865afa158015611066573d6000803e3d6000fd5b505050506040513d601f19601f8201168201806040525081019061108a91906131a5565b61109491906131d4565b61109e91906131f3565b6080820152600154604080516318160ddd60e01b815290516001600160a01b03909216916318160ddd916004808201926020929091908290030181865afa1580156110ed573d6000803e3d6000fd5b505050506040513d601f19601f8201168201806040525081019061111191906131a5565b60a08201526002546040805163c559f84360e01b815290516001600160a01b039092169163c559f843916004808201926020929091908290030181865afa158015611160573d6000803e3d6000fd5b505050506040513d601f19601f8201168201806040525081019061118491906131a5565b60c082015260208101516111999060076131d4565b604082810151600254600354925163f122977760e01b81526001600160a01b039384166004820152670de0b6b3a7640000939091169063f122977790602401602060405180830381865afa1580156111f5573d6000803e3d6000fd5b505050506040513d601f19601f8201168201806040525081019061121991906131a5565b61122391906131d4565b61122d91906131f3565b602083015160025460015460405163f122977760e01b81526001600160a01b039182166004820152670de0b6b3a76400009392919091169063f122977790602401602060405180830381865afa15801561128b573d6000803e3d6000fd5b505050506040513d601f19601f820116820180604052508101906112af91906131a5565b6112b991906131d4565b6112c391906131f3565b835160025460405163f122977760e01b815273826551890dc65655a0aceca109ab11abdbd7a07b6004820152670de0b6b3a764000092916001600160a01b03169063f122977790602401602060405180830381865afa15801561132a573d6000803e3d6000fd5b505050506040513d601f19601f8201168201806040525081019061134e91906131a5565b61135891906131d4565b61136291906131f3565b61136c9190613232565b6113769190613232565b6113829061016d6131d4565b61138d9060646131d4565b61139f90670de0b6b3a76400006131d4565b6113a991906131f3565b60e082015260015460408051634e8da32560e11b815290516001600160a01b0390921691639d1b464a916004808201926020929091908290030181865afa1580156113f8573d6000803e3d6000fd5b505050506040513d601f19601f8201168201806040525081019061141c91906131a5565b600160009054906101000a90046001600160a01b03166001600160a01b0316639363c8126040518163ffffffff1660e01b8152600401602060405180830381865afa15801561146f573d6000803e3d6000fd5b505050506040513d601f19601f8201168201806040525081019061149391906131a5565b61149e9060646131d4565b6114b090670de0b6b3a76400006131d4565b6114ba91906131f3565b610100820152600154604080516349b1e40960e11b815290516001600160a01b0390921691639363c812916004808201926020929091908290030181865afa15801561150a573d6000803e3d6000fd5b505050506040513d601f19601f8201168201806040525081019061152e91906131a5565b600160009054906101000a90046001600160a01b03166001600160a01b0316639d1b464a6040518163ffffffff1660e01b8152600401602060405180830381865afa158015611581573d6000803e3d6000fd5b505050506040513d601f19601f820116820180604052508101906115a591906131a5565b6115b790670de0b6b3a76400006131d4565b6115c191906131f3565b6101208201526001600160a01b03821615611657576040516370a0823160e01b81526001600160a01b038316600482015273826551890dc65655a0aceca109ab11abdbd7a07b906370a0823190602401602060405180830381865afa15801561162e573d6000803e3d6000fd5b505050506040513d601f19601f8201168201806040525081019061165291906131a5565b61165a565b60005b6101408201526001600160a01b038216156116e2576001546040516370a0823160e01b81526001600160a01b038481166004830152909116906370a0823190602401602060405180830381865afa1580156116b9573d6000803e3d6000fd5b505050506040513d601f19601f820116820180604052508101906116dd91906131a5565b6116e5565b60005b6101608201526001600160a01b0382161561176d576003546040516370a0823160e01b81526001600160a01b038481166004830152909116906370a0823190602401602060405180830381865afa158015611744573d6000803e3d6000fd5b505050506040513d601f19601f8201168201806040525081019061176891906131a5565b611770565b60005b6101808201526001600160a01b038216156118125760025460405163211dc32d60e01b81526001600160a01b03848116600483015273826551890dc65655a0aceca109ab11abdbd7a07b60248301529091169063211dc32d90604401602060405180830381865afa1580156117e9573d6000803e3d6000fd5b505050506040513d601f19601f8201168201806040525081019061180d91906131a5565b611815565b60005b6101a08201526001600160a01b038216156118a75760025460015460405163211dc32d60e01b81526001600160a01b038581166004830152918216602482015291169063211dc32d90604401602060405180830381865afa15801561187e573d6000803e3d6000fd5b505050506040513d601f19601f820116820180604052508101906118a291906131a5565b6118aa565b60005b6101c08201526001600160a01b0382161561193c5760025460035460405163211dc32d60e01b81526001600160a01b038581166004830152918216602482015291169063211dc32d90604401602060405180830381865afa158015611913573d6000803e3d6000fd5b505050506040513d601f19601f8201168201806040525081019061193791906131a5565b61193f565b60005b6101e08201526001600160a01b038216156119c757600254604051631ed5c3b560e31b81526001600160a01b0384811660048301529091169063f6ae1da890602401602060405180830381865afa15801561199e573d6000803e3d6000fd5b505050506040513d601f19601f820116820180604052508101906119c291906131a5565b6119ca565b60005b6102008201526001600160a01b03821615611a52576002546040516370a0823160e01b81526001600160a01b038481166004830152909116906370a0823190602401602060405180830381865afa158015611a29573d6000803e3d6000fd5b505050506040513d601f19601f82011682018060405250810190611a4d91906131a5565b611a55565b60005b6102208201526001600160a01b03821615611add5760015460405163c6e5041360e01b81526001600160a01b0384811660048301529091169063c6e5041390602401602060405180830381865afa158015611ab4573d6000803e3d6000fd5b505050506040513d601f19601f82011682018060405250810190611ad891906131a5565b611ae0565b60005b6102408201526001600160a01b03821615611b685760015460405163e6a706d160e01b81526001600160a01b0384811660048301529091169063e6a706d190602401602060405180830381865afa158015611b3f573d6000803e3d6000fd5b505050506040513d601f19601f82011682018060405250810190611b6391906131a5565b611b6b565b60005b6102608201526001600160a01b03821615611c145760008054604051620be37960e21b81526001600160a01b03858116600483015290911690622f8de490602401602060405180830381865afa158015611bc9573d6000803e3d6000fd5b505050506040513d601f19601f82011682018060405250810190611bed91906131a5565b11611c0d57806102600151816102000151611c08919061324a565b611c17565b6000611c17565b60005b610280820152919050565b611c6a60405180610100016040528060608152602001606081526020016060815260200160608152602001606081526020016000815260200160008152602001600081525090565b826001600160a01b031663d16352af6040518163ffffffff1660e01b8152600401600060405180830381865afa158015611ca8573d6000803e3d6000fd5b505050506040513d6000823e601f3d908101601f19168201604052611cd0919081019061305f565b8160000181905250826001600160a01b03166395d89b416040518163ffffffff1660e01b8152600401600060405180830381865afa158015611d16573d6000803e3d6000fd5b505050506040513d6000823e601f3d908101601f19168201604052611d3e919081019061305f565b6020820152600054604051635462ecad60e11b81526001600160a01b0385811660048301529091169063a8c5d95a90602401602060405180830381865afa158015611d8d573d6000803e3d6000fd5b505050506040513d601f19601f82011682018060405250810190611db19190613215565b6001600160a01b031663c4f59f9b6040518163ffffffff1660e01b8152600401600060405180830381865afa158015611dee573d6000803e3d6000fd5b505050506040513d6000823e601f3d908101601f19168201604052611e1691908101906130f3565b604082018190525160009067ffffffffffffffff811115611e3957611e39613018565b604051908082528060200260200182016040528015611e62578160200160208202803683370190505b50905060005b826040015151811015611faa57600054604051635462ecad60e11b81526001600160a01b0387811660048301529091169063a8c5d95a90602401602060405180830381865afa158015611ebf573d6000803e3d6000fd5b505050506040513d601f19601f82011682018060405250810190611ee39190613215565b6001600160a01b031663f122977784604001518381518110611f0757611f07613261565b60200260200101516040518263ffffffff1660e01b8152600401611f3a91906001600160a01b0391909116815260200190565b602060405180830381865afa158015611f57573d6000803e3d6000fd5b505050506040513d601f19601f82011682018060405250810190611f7b91906131a5565b828281518110611f8d57611f8d613261565b602090810291909101015280611fa281613277565b915050611e68565b506060820181905260408201515160009067ffffffffffffffff811115611fd357611fd3613018565b604051908082528060200260200182016040528015611ffc578160200160208202803683370190505b50905060005b836040015151811015612163576001600160a01b0385161561213157600054604051635462ecad60e11b81526001600160a01b0388811660048301529091169063a8c5d95a90602401602060405180830381865afa158015612068573d6000803e3d6000fd5b505050506040513d601f19601f8201168201806040525081019061208c9190613215565b6001600160a01b031663211dc32d86866040015184815181106120b1576120b1613261565b60200260200101516040518363ffffffff1660e01b81526004016120eb9291906001600160a01b0392831681529116602082015260400190565b602060405180830381865afa158015612108573d6000803e3d6000fd5b505050506040513d601f19601f8201168201806040525081019061212c91906131a5565b612134565b60005b82828151811061214657612146613261565b60209081029190910101528061215b81613277565b915050612002565b50608083018190526000546040516353e5642360e11b81526001600160a01b0387811660048301529091169063a7cac84690602401602060405180830381865afa1580156121b5573d6000803e3d6000fd5b505050506040513d601f19601f820116820180604052508101906121d991906131a5565b60a0840152600054604080516396c82e5760e01b815290516001600160a01b03909216916396c82e57916004808201926020929091908290030181865afa158015612228573d6000803e3d6000fd5b505050506040513d601f19601f8201168201806040525081019061224c91906131a5565b6000546040516353e5642360e11b81526001600160a01b0388811660048301529091169063a7cac84690602401602060405180830381865afa158015612296573d6000803e3d6000fd5b505050506040513d601f19601f820116820180604052508101906122ba91906131a5565b6122c59060646131d4565b6122d790670de0b6b3a76400006131d4565b6122e191906131f3565b60c08401526001600160a01b038416156123f857600054604051620be37960e21b81526001600160a01b03868116600483015290911690622f8de490602401602060405180830381865afa15801561233d573d6000803e3d6000fd5b505050506040513d601f19601f8201168201806040525081019061236191906131a5565b600054604051636568dc8360e11b81526001600160a01b03878116600483015288811660248301529091169063cad1b90690604401602060405180830381865afa1580156123b3573d6000803e3d6000fd5b505050506040513d601f19601f820116820180604052508101906123d791906131a5565b6123e990670de0b6b3a76400006131d4565b6123f391906131f3565b6123fb565b60005b60e0840152505092915050565b600080546040805163673a2a1f60e01b815290516060936001600160a01b039093169263673a2a1f92600480820193918290030181865afa158015612451573d6000803e3d6000fd5b505050506040513d6000823e601f3d908101601f1916820160405261247991908101906130f3565b905090565b600154604051632d438db360e21b815260048101849052600091829182916001600160a01b03169063b50e36cc90602401602060405180830381865afa1580156124cc573d6000803e3d6000fd5b505050506040513d601f19601f820116820180604052508101906124f091906131a5565b60015460408051634e8da32560e11b81529051670de0b6b3a7640000926001600160a01b031691639d1b464a9160048083019260209291908290030181865afa158015612541573d6000803e3d6000fd5b505050506040513d601f19601f8201168201806040525081019061256591906131a5565b600154604051632d438db360e21b8152600481018a90526001600160a01b039091169063b50e36cc90602401602060405180830381865afa1580156125ae573d6000803e3d6000fd5b505050506040513d601f19601f820116820180604052508101906125d291906131a5565b6125dc91906131d4565b6125e691906131f3565b6125f887670de0b6b3a76400006131d4565b61260291906131f3565b61261490670de0b6b3a764000061324a565b61261f9060646131d4565b6103e861262c87896131d4565b61263691906131f3565b9250925092509250925092565b6001546040516328ce8fd160e01b815260048101849052600091829182916001600160a01b0316906328ce8fd190602401602060405180830381865afa158015612691573d6000803e3d6000fd5b505050506040513d601f19601f820116820180604052508101906126b591906131a5565b60015460408051634e8da32560e11b81529051670de0b6b3a7640000926001600160a01b031691639d1b464a9160048083019260209291908290030181865afa158015612706573d6000803e3d6000fd5b505050506040513d601f19601f8201168201806040525081019061272a91906131a5565b61273490886131d4565b61273e91906131f3565b6001546040516328ce8fd160e01b8152600481018990526001600160a01b03909116906328ce8fd190602401602060405180830381865afa158015612787573d6000803e3d6000fd5b505050506040513d601f19601f820116820180604052508101906127ab91906131a5565b6127bd90670de0b6b3a76400006131d4565b6127c791906131f3565b6127d990670de0b6b3a764000061324a565b6127e49060646131d4565b6103e886670de0b6b3a7640000600160009054906101000a90046001600160a01b03166001600160a01b0316639d1b464a6040518163ffffffff1660e01b8152600401602060405180830381865afa158015612844573d6000803e3d6000fd5b505050506040513d601f19601f8201168201806040525081019061286891906131a5565b612872908b6131d4565b61287c91906131f3565b61262c91906131d4565b600154604051631196743960e01b815260048101849052600091829182916001600160a01b031690631196743990602401602060405180830381865afa1580156128d4573d6000803e3d6000fd5b505050506040513d601f19601f820116820180604052508101906128f891906131a5565b600160009054906101000a90046001600160a01b03166001600160a01b0316639d1b464a6040518163ffffffff1660e01b8152600401602060405180830381865afa15801561294b573d6000803e3d6000fd5b505050506040513d601f19601f8201168201806040525081019061296f91906131a5565b61298187670de0b6b3a76400006131d4565b61298b91906131f3565b600154604051631196743960e01b8152600481018990526001600160a01b0390911690631196743990602401602060405180830381865afa1580156129d4573d6000803e3d6000fd5b505050506040513d601f19601f820116820180604052508101906129f891906131a5565b612a0a90670de0b6b3a76400006131d4565b612a1491906131f3565b612a2690670de0b6b3a764000061324a565b612a319060646131d4565b6103e886600160009054906101000a90046001600160a01b03166001600160a01b0316639d1b464a6040518163ffffffff1660e01b8152600401602060405180830381865afa158015612a88573d6000803e3d6000fd5b505050506040513d601f19601f82011682018060405250810190612aac91906131a5565b6128728a670de0b6b3a76400006131d4565b6001546040516347347fb760e11b815260048101849052600091829182916001600160a01b031690638e68ff6e90602401602060405180830381865afa158015612b0c573d6000803e3d6000fd5b505050506040513d601f19601f82011682018060405250810190612b3091906131a5565b600160009054906101000a90046001600160a01b03166001600160a01b0316639d1b464a6040518163ffffffff1660e01b8152600401602060405180830381865afa158015612b83573d6000803e3d6000fd5b505050506040513d601f19601f82011682018060405250810190612ba791906131a5565b6001546040516347347fb760e11b8152600481018990526001600160a01b0390911690638e68ff6e90602401602060405180830381865afa158015612bf0573d6000803e3d6000fd5b505050506040513d601f19601f82011682018060405250810190612c1491906131a5565b612c2690670de0b6b3a76400006131d4565b612c3091906131f3565b6125f885670de0b6b3a76400006131d4565b600080546040516315895f4760e31b8152600481018490526001600160a01b039091169063ac4afa3890602401602060405180830381865afa158015612c8c573d6000803e3d6000fd5b505050506040513d601f19601f82011682018060405250810190612cb09190613215565b92915050565b6001600160a01b0381168114612ccb57600080fd5b50565b60008060408385031215612ce157600080fd5b8235612cec81612cb6565b91506020830135612cfc81612cb6565b809150509250929050565b60005b83811015612d22578181015183820152602001612d0a565b83811115612d31576000848401525b50505050565b60008151808452612d4f816020860160208601612d07565b601f01601f19169290920160200192915050565b600081518084526020808501945080840160005b83811015612d9c5781516001600160a01b031687529582019590820190600101612d77565b509495945050505050565b6020815260008251610180806020850152612dc66101a0850183612d37565b91506020850151601f1980868503016040870152612de48483612d37565b9350604087015191508086850301606087015250612e028382612d63565b92505060608501516080850152608085015160a085015260a085015160c085015260c085015160e085015260e0850151610100818187015280870151915050610120818187015280870151915050610140818187015280870151915050610160818187015280870151838701525050508091505092915050565b600060208284031215612e8e57600080fd5b8135612e9981612cb6565b9392505050565b600081518084526020808501945080840160005b83811015612d9c57815187529582019590820190600101612eb4565b6020815260008251610100806020850152612eef610120850183612d37565b91506020850151601f1980868503016040870152612f0d8483612d37565b93506040870151915080868503016060870152612f2a8483612d63565b93506060870151915080868503016080870152612f478483612ea0565b935060808701519150808685030160a087015250612f658382612ea0565b92505060a085015160c085015260c085015160e085015260e085015181850152508091505092915050565b6020808252825182820181905260009190848201906040850190845b81811015612fd15783516001600160a01b031683529284019291840191600101612fac565b50909695505050505050565b60008060408385031215612ff057600080fd5b50508035926020909101359150565b60006020828403121561301157600080fd5b5035919050565b634e487b7160e01b600052604160045260246000fd5b604051601f8201601f1916810167ffffffffffffffff8111828210171561305757613057613018565b604052919050565b60006020828403121561307157600080fd5b815167ffffffffffffffff8082111561308957600080fd5b818401915084601f83011261309d57600080fd5b8151818111156130af576130af613018565b6130c2601f8201601f191660200161302e565b91508082528560208285010111156130d957600080fd5b6130ea816020840160208601612d07565b50949350505050565b6000602080838503121561310657600080fd5b825167ffffffffffffffff8082111561311e57600080fd5b818501915085601f83011261313257600080fd5b81518181111561314457613144613018565b8060051b915061315584830161302e565b818152918301840191848101908884111561316f57600080fd5b938501935b83851015613199578451925061318983612cb6565b8282529385019390850190613174565b98975050505050505050565b6000602082840312156131b757600080fd5b5051919050565b634e487b7160e01b600052601160045260246000fd5b60008160001904831182151516156131ee576131ee6131be565b500290565b60008261321057634e487b7160e01b600052601260045260246000fd5b500490565b60006020828403121561322757600080fd5b8151612e9981612cb6565b60008219821115613245576132456131be565b500190565b60008282101561325c5761325c6131be565b500390565b634e487b7160e01b600052603260045260246000fd5b600060018201613289576132896131be565b506001019056fea2646970667358221220a2e65a191d8b67770086dee9ef83d81a44ededd9bd6170a854a29af41184414a64736f6c634300080d0033",
  "linkReferences": {},
  "deployedLinkReferences": {}
}