{
  "_format": "hh-sol-artifact-1",
  "contractName": "Voter",
  "sourceName": "contracts/Voter.sol",
  "abi": [
    {
      "inputs": [
        {
          "internalType": "address",
          "name": "_ve",
          "type": "address"
        },
        {
          "internalType": "address",
          "name": "_base",
          "type": "address"
        },
        {
          "internalType": "address",
          "name": "_gauges",
          "type": "address"
        },
        {
          "internalType": "address",
          "name": "_bribes",
          "type": "address"
        }
      ],
      "stateMutability": "nonpayable",
      "type": "constructor"
    },
    {
      "anonymous": false,
      "inputs": [
        {
          "indexed": false,
          "internalType": "address",
          "name": "account",
          "type": "address"
        },
        {
          "indexed": false,
          "internalType": "uint256",
          "name": "weight",
          "type": "uint256"
        }
      ],
      "name": "Abstained",
      "type": "event"
    },
    {
      "anonymous": false,
      "inputs": [
        {
          "indexed": true,
          "internalType": "address",
          "name": "lp",
          "type": "address"
        },
        {
          "indexed": true,
          "internalType": "address",
          "name": "gauge",
          "type": "address"
        },
        {
          "indexed": false,
          "internalType": "address",
          "name": "account",
          "type": "address"
        },
        {
          "indexed": false,
          "internalType": "uint256",
          "name": "amount",
          "type": "uint256"
        }
      ],
      "name": "Deposit",
      "type": "event"
    },
    {
      "anonymous": false,
      "inputs": [
        {
          "indexed": true,
          "internalType": "address",
          "name": "sender",
          "type": "address"
        },
        {
          "indexed": true,
          "internalType": "address",
          "name": "gauge",
          "type": "address"
        },
        {
          "indexed": false,
          "internalType": "uint256",
          "name": "amount",
          "type": "uint256"
        }
      ],
      "name": "DistributeReward",
      "type": "event"
    },
    {
      "anonymous": false,
      "inputs": [
        {
          "indexed": false,
          "internalType": "address",
          "name": "creator",
          "type": "address"
        },
        {
          "indexed": true,
          "internalType": "address",
          "name": "pool",
          "type": "address"
        },
        {
          "indexed": true,
          "internalType": "address",
          "name": "gauge",
          "type": "address"
        },
        {
          "indexed": false,
          "internalType": "address",
          "name": "bribe",
          "type": "address"
        }
      ],
      "name": "GaugeCreated",
      "type": "event"
    },
    {
      "anonymous": false,
      "inputs": [
        {
          "indexed": true,
          "internalType": "address",
          "name": "gauge",
          "type": "address"
        }
      ],
      "name": "GaugeKilled",
      "type": "event"
    },
    {
      "anonymous": false,
      "inputs": [
        {
          "indexed": true,
          "internalType": "address",
          "name": "gauge",
          "type": "address"
        }
      ],
      "name": "GaugeRevived",
      "type": "event"
    },
    {
      "anonymous": false,
      "inputs": [
        {
          "indexed": true,
          "internalType": "address",
          "name": "sender",
          "type": "address"
        },
        {
          "indexed": true,
          "internalType": "address",
          "name": "reward",
          "type": "address"
        },
        {
          "indexed": false,
          "internalType": "uint256",
          "name": "amount",
          "type": "uint256"
        }
      ],
      "name": "NotifyReward",
      "type": "event"
    },
    {
      "anonymous": false,
      "inputs": [
        {
          "indexed": false,
          "internalType": "address",
          "name": "oldOwner",
          "type": "address"
        },
        {
          "indexed": false,
          "internalType": "address",
          "name": "newOwner",
          "type": "address"
        }
      ],
      "name": "OwnerChanged",
      "type": "event"
    },
    {
      "anonymous": false,
      "inputs": [
        {
          "indexed": false,
          "internalType": "address",
          "name": "newOwner",
          "type": "address"
        }
      ],
      "name": "OwnerNominated",
      "type": "event"
    },
    {
      "anonymous": false,
      "inputs": [
        {
          "indexed": true,
          "internalType": "address",
          "name": "voter",
          "type": "address"
        },
        {
          "indexed": false,
          "internalType": "uint256",
          "name": "weight",
          "type": "uint256"
        }
      ],
      "name": "Voted",
      "type": "event"
    },
    {
      "anonymous": false,
      "inputs": [
        {
          "indexed": true,
          "internalType": "address",
          "name": "lp",
          "type": "address"
        },
        {
          "indexed": true,
          "internalType": "address",
          "name": "gauge",
          "type": "address"
        },
        {
          "indexed": false,
          "internalType": "address",
          "name": "account",
          "type": "address"
        },
        {
          "indexed": false,
          "internalType": "uint256",
          "name": "amount",
          "type": "uint256"
        }
      ],
      "name": "Withdraw",
      "type": "event"
    },
    {
      "inputs": [],
      "name": "acceptOwnership",
      "outputs": [],
      "stateMutability": "nonpayable",
      "type": "function"
    },
    {
      "inputs": [
        {
          "internalType": "address",
          "name": "_bribe",
          "type": "address"
        },
        {
          "internalType": "address",
          "name": "_rewardToken",
          "type": "address"
        }
      ],
      "name": "addBribeReward",
      "outputs": [],
      "stateMutability": "nonpayable",
      "type": "function"
    },
    {
      "inputs": [
        {
          "internalType": "address",
          "name": "_gauge",
          "type": "address"
        },
        {
          "internalType": "address",
          "name": "_rewardToken",
          "type": "address"
        }
      ],
      "name": "addGaugeReward",
      "outputs": [],
      "stateMutability": "nonpayable",
      "type": "function"
    },
    {
      "inputs": [],
      "name": "bribefactory",
      "outputs": [
        {
          "internalType": "address",
          "name": "",
          "type": "address"
        }
      ],
      "stateMutability": "view",
      "type": "function"
    },
    {
      "inputs": [
        {
          "internalType": "address",
          "name": "",
          "type": "address"
        }
      ],
      "name": "bribes",
      "outputs": [
        {
          "internalType": "address",
          "name": "",
          "type": "address"
        }
      ],
      "stateMutability": "view",
      "type": "function"
    },
    {
      "inputs": [
        {
          "internalType": "address[]",
          "name": "_bribes",
          "type": "address[]"
        }
      ],
      "name": "claimBribes",
      "outputs": [],
      "stateMutability": "nonpayable",
      "type": "function"
    },
    {
      "inputs": [
        {
          "internalType": "address[]",
          "name": "_gauges",
          "type": "address[]"
        }
      ],
      "name": "claimRewards",
      "outputs": [],
      "stateMutability": "nonpayable",
      "type": "function"
    },
    {
      "inputs": [
        {
          "internalType": "address",
          "name": "",
          "type": "address"
        }
      ],
      "name": "claimable",
      "outputs": [
        {
          "internalType": "uint256",
          "name": "",
          "type": "uint256"
        }
      ],
      "stateMutability": "view",
      "type": "function"
    },
    {
      "inputs": [
        {
          "internalType": "address",
          "name": "_asset",
          "type": "address"
        }
      ],
      "name": "createGauge",
      "outputs": [
        {
          "internalType": "address",
          "name": "",
          "type": "address"
        }
      ],
      "stateMutability": "nonpayable",
      "type": "function"
    },
    {
      "inputs": [
        {
          "internalType": "address",
          "name": "_gauge",
          "type": "address"
        }
      ],
      "name": "distribute",
      "outputs": [],
      "stateMutability": "nonpayable",
      "type": "function"
    },
    {
      "inputs": [
        {
          "internalType": "uint256",
          "name": "start",
          "type": "uint256"
        },
        {
          "internalType": "uint256",
          "name": "finish",
          "type": "uint256"
        }
      ],
      "name": "distribute",
      "outputs": [],
      "stateMutability": "nonpayable",
      "type": "function"
    },
    {
      "inputs": [
        {
          "internalType": "address[]",
          "name": "_pools",
          "type": "address[]"
        }
      ],
      "name": "distributeToBribes",
      "outputs": [],
      "stateMutability": "nonpayable",
      "type": "function"
    },
    {
      "inputs": [],
      "name": "distro",
      "outputs": [],
      "stateMutability": "nonpayable",
      "type": "function"
    },
    {
      "inputs": [
        {
          "internalType": "address",
          "name": "account",
          "type": "address"
        },
        {
          "internalType": "uint256",
          "name": "amount",
          "type": "uint256"
        }
      ],
      "name": "emitDeposit",
      "outputs": [],
      "stateMutability": "nonpayable",
      "type": "function"
    },
    {
      "inputs": [
        {
          "internalType": "address",
          "name": "account",
          "type": "address"
        },
        {
          "internalType": "uint256",
          "name": "amount",
          "type": "uint256"
        }
      ],
      "name": "emitWithdraw",
      "outputs": [],
      "stateMutability": "nonpayable",
      "type": "function"
    },
    {
      "inputs": [],
      "name": "gaugefactory",
      "outputs": [
        {
          "internalType": "address",
          "name": "",
          "type": "address"
        }
      ],
      "stateMutability": "view",
      "type": "function"
    },
    {
      "inputs": [
        {
          "internalType": "address",
          "name": "",
          "type": "address"
        }
      ],
      "name": "gauges",
      "outputs": [
        {
          "internalType": "address",
          "name": "",
          "type": "address"
        }
      ],
      "stateMutability": "view",
      "type": "function"
    },
    {
      "inputs": [],
      "name": "getPools",
      "outputs": [
        {
          "internalType": "address[]",
          "name": "",
          "type": "address[]"
        }
      ],
      "stateMutability": "view",
      "type": "function"
    },
    {
      "inputs": [],
      "name": "governance",
      "outputs": [
        {
          "internalType": "address",
          "name": "",
          "type": "address"
        }
      ],
      "stateMutability": "view",
      "type": "function"
    },
    {
      "inputs": [
        {
          "internalType": "address",
          "name": "_minter",
          "type": "address"
        }
      ],
      "name": "initialize",
      "outputs": [],
      "stateMutability": "nonpayable",
      "type": "function"
    },
    {
      "inputs": [
        {
          "internalType": "address",
          "name": "",
          "type": "address"
        }
      ],
      "name": "isAlive",
      "outputs": [
        {
          "internalType": "bool",
          "name": "",
          "type": "bool"
        }
      ],
      "stateMutability": "view",
      "type": "function"
    },
    {
      "inputs": [
        {
          "internalType": "address",
          "name": "",
          "type": "address"
        }
      ],
      "name": "isGauge",
      "outputs": [
        {
          "internalType": "bool",
          "name": "",
          "type": "bool"
        }
      ],
      "stateMutability": "view",
      "type": "function"
    },
    {
      "inputs": [
        {
          "internalType": "address",
          "name": "_gauge",
          "type": "address"
        }
      ],
      "name": "killGauge",
      "outputs": [],
      "stateMutability": "nonpayable",
      "type": "function"
    },
    {
      "inputs": [
        {
          "internalType": "address",
          "name": "",
          "type": "address"
        }
      ],
      "name": "lastVoted",
      "outputs": [
        {
          "internalType": "uint256",
          "name": "",
          "type": "uint256"
        }
      ],
      "stateMutability": "view",
      "type": "function"
    },
    {
      "inputs": [],
      "name": "length",
      "outputs": [
        {
          "internalType": "uint256",
          "name": "",
          "type": "uint256"
        }
      ],
      "stateMutability": "view",
      "type": "function"
    },
    {
      "inputs": [],
      "name": "minter",
      "outputs": [
        {
          "internalType": "address",
          "name": "",
          "type": "address"
        }
      ],
      "stateMutability": "view",
      "type": "function"
    },
    {
      "inputs": [
        {
          "internalType": "address",
          "name": "_owner",
          "type": "address"
        }
      ],
      "name": "nominateNewOwner",
      "outputs": [],
      "stateMutability": "nonpayable",
      "type": "function"
    },
    {
      "inputs": [],
      "name": "nominatedOwner",
      "outputs": [
        {
          "internalType": "address",
          "name": "",
          "type": "address"
        }
      ],
      "stateMutability": "view",
      "type": "function"
    },
    {
      "inputs": [
        {
          "internalType": "uint256",
          "name": "amount",
          "type": "uint256"
        }
      ],
      "name": "notifyRewardAmount",
      "outputs": [],
      "stateMutability": "nonpayable",
      "type": "function"
    },
    {
      "inputs": [],
      "name": "owner",
      "outputs": [
        {
          "internalType": "address",
          "name": "",
          "type": "address"
        }
      ],
      "stateMutability": "view",
      "type": "function"
    },
    {
      "inputs": [
        {
          "internalType": "address",
          "name": "account",
          "type": "address"
        }
      ],
      "name": "poke",
      "outputs": [],
      "stateMutability": "nonpayable",
      "type": "function"
    },
    {
      "inputs": [
        {
          "internalType": "address",
          "name": "",
          "type": "address"
        }
      ],
      "name": "poolForGauge",
      "outputs": [
        {
          "internalType": "address",
          "name": "",
          "type": "address"
        }
      ],
      "stateMutability": "view",
      "type": "function"
    },
    {
      "inputs": [
        {
          "internalType": "address",
          "name": "",
          "type": "address"
        },
        {
          "internalType": "uint256",
          "name": "",
          "type": "uint256"
        }
      ],
      "name": "poolVote",
      "outputs": [
        {
          "internalType": "address",
          "name": "",
          "type": "address"
        }
      ],
      "stateMutability": "view",
      "type": "function"
    },
    {
      "inputs": [
        {
          "internalType": "uint256",
          "name": "",
          "type": "uint256"
        }
      ],
      "name": "pools",
      "outputs": [
        {
          "internalType": "address",
          "name": "",
          "type": "address"
        }
      ],
      "stateMutability": "view",
      "type": "function"
    },
    {
      "inputs": [],
      "name": "reset",
      "outputs": [],
      "stateMutability": "nonpayable",
      "type": "function"
    },
    {
      "inputs": [
        {
          "internalType": "address",
          "name": "_gauge",
          "type": "address"
        }
      ],
      "name": "reviveGauge",
      "outputs": [],
      "stateMutability": "nonpayable",
      "type": "function"
    },
    {
      "inputs": [
        {
          "internalType": "address",
          "name": "_governance",
          "type": "address"
        }
      ],
      "name": "setGovernance",
      "outputs": [],
      "stateMutability": "nonpayable",
      "type": "function"
    },
    {
      "inputs": [
        {
          "internalType": "address",
          "name": "_treasury",
          "type": "address"
        }
      ],
      "name": "setTreasury",
      "outputs": [],
      "stateMutability": "nonpayable",
      "type": "function"
    },
    {
      "inputs": [],
      "name": "totalWeight",
      "outputs": [
        {
          "internalType": "uint256",
          "name": "",
          "type": "uint256"
        }
      ],
      "stateMutability": "view",
      "type": "function"
    },
    {
      "inputs": [],
      "name": "treasury",
      "outputs": [
        {
          "internalType": "address",
          "name": "",
          "type": "address"
        }
      ],
      "stateMutability": "view",
      "type": "function"
    },
    {
      "inputs": [],
      "name": "updateAll",
      "outputs": [],
      "stateMutability": "nonpayable",
      "type": "function"
    },
    {
      "inputs": [
        {
          "internalType": "address[]",
          "name": "_gauges",
          "type": "address[]"
        }
      ],
      "name": "updateFor",
      "outputs": [],
      "stateMutability": "nonpayable",
      "type": "function"
    },
    {
      "inputs": [
        {
          "internalType": "uint256",
          "name": "start",
          "type": "uint256"
        },
        {
          "internalType": "uint256",
          "name": "end",
          "type": "uint256"
        }
      ],
      "name": "updateForRange",
      "outputs": [],
      "stateMutability": "nonpayable",
      "type": "function"
    },
    {
      "inputs": [
        {
          "internalType": "address",
          "name": "_gauge",
          "type": "address"
        }
      ],
      "name": "updateGauge",
      "outputs": [],
      "stateMutability": "nonpayable",
      "type": "function"
    },
    {
      "inputs": [
        {
          "internalType": "address",
          "name": "",
          "type": "address"
        }
      ],
      "name": "usedWeights",
      "outputs": [
        {
          "internalType": "uint256",
          "name": "",
          "type": "uint256"
        }
      ],
      "stateMutability": "view",
      "type": "function"
    },
    {
      "inputs": [],
      "name": "ve",
      "outputs": [
        {
          "internalType": "address",
          "name": "",
          "type": "address"
        }
      ],
      "stateMutability": "view",
      "type": "function"
    },
    {
      "inputs": [
        {
          "internalType": "address[]",
          "name": "_poolVote",
          "type": "address[]"
        },
        {
          "internalType": "uint256[]",
          "name": "_weights",
          "type": "uint256[]"
        }
      ],
      "name": "vote",
      "outputs": [],
      "stateMutability": "nonpayable",
      "type": "function"
    },
    {
      "inputs": [
        {
          "internalType": "address",
          "name": "",
          "type": "address"
        },
        {
          "internalType": "address",
          "name": "",
          "type": "address"
        }
      ],
      "name": "votes",
      "outputs": [
        {
          "internalType": "uint256",
          "name": "",
          "type": "uint256"
        }
      ],
      "stateMutability": "view",
      "type": "function"
    },
    {
      "inputs": [
        {
          "internalType": "address",
          "name": "",
          "type": "address"
        }
      ],
      "name": "weights",
      "outputs": [
        {
          "internalType": "uint256",
          "name": "",
          "type": "uint256"
        }
      ],
      "stateMutability": "view",
      "type": "function"
    }
  ],
  "bytecode": "0x61010060405260016011553480156200001757600080fd5b5060405162002aa838038062002aa88339810160408190526200003a9162000151565b33806200008d5760405162461bcd60e51b815260206004820152601960248201527f4f776e657220616464726573732063616e6e6f74206265203000000000000000604482015260640160405180910390fd5b600080546001600160a01b0319166001600160a01b03831690811782556040805192835260208301919091527fb532073b38c83145e3e5135377a08bf9aab55bc0fd7c1179cd4fb995d2a5159c910160405180910390a1506001600160a01b0393841660805291831660a052821660c0521660e05260028054336001600160a01b0319918216811790925560048054821683179055600580549091169091179055620001ae565b80516001600160a01b03811681146200014c57600080fd5b919050565b600080600080608085870312156200016857600080fd5b620001738562000134565b9350620001836020860162000134565b9250620001936040860162000134565b9150620001a36060860162000134565b905092959194509250565b60805160a05160c05160e05161288862000220600039600081816103e801526113e30152600081816104d901526111ed0152600081816108c60152818161093f01528181610b5601528181610c1201528181611273015261135b01526000818161039b0152611d9501526128886000f3fe608060405234801561001057600080fd5b50600436106102ba5760003560e01c80637625391a11610182578063aa79979b116100e9578063c48f5af4116100a2578063d560b0d71161007c578063d560b0d7146106f6578063d826f88f14610709578063f0f4426014610711578063f9f031df1461072457600080fd5b8063c48f5af4146106a5578063c4d66de8146106b8578063cad1b906146106cb57600080fd5b8063aa79979b1461060d578063ab033ea914610630578063ac4afa3814610643578063b014da2114610656578063b1a997ac14610669578063b9a09fd51461067c57600080fd5b80639a61df891161013b5780639a61df891461056b5780639b6a9d721461058b5780639f06247b1461059e578063a5f4301e146105b1578063a7cac846146105c4578063a8c5d95a146105e457600080fd5b80637625391a1461052157806379ba5097146105345780637ceed4af146104865780638da5cb5b1461053c57806396c82e571461054f578063992a79331461055857600080fd5b806347b3c6ba1161022657806361d027b3116101df57806361d027b31461049957806363453ae1146104ac578063673a2a1f146104bf57806368c3acb3146104d45780636ecbe38a146104fb5780636f816a201461050e57600080fd5b806347b3c6ba1461043d5780634978c5121461044557806353a47bb71461045857806353d786931461046b5780635aa6e675146104735780635f09f2be1461048657600080fd5b80631f850716116102785780631f85071614610396578063240f9774146103bd57806328ba84ca146103d057806338752a9d146103e35780633c6b16ab1461040a578063402914f51461041d57600080fd5b80622f8de4146102bf57806306d6a1b2146102f257806307546172146103335780631627540c146103465780631703e5f91461035b5780631f7b6d321461038e575b600080fd5b6102df6102cd366004612359565b600d6020526000908152604090205481565b6040519081526020015b60405180910390f35b61031b610300366004612359565b6008602052600090815260409020546001600160a01b031681565b6040516001600160a01b0390911681526020016102e9565b60025461031b906001600160a01b031681565b610359610354366004612359565b610737565b005b61037e610369366004612359565b60106020526000908152604090205460ff1681565b60405190151581526020016102e9565b6006546102df565b61031b7f000000000000000000000000000000000000000000000000000000000000000081565b6103596103cb3660046123e8565b610793565b6103596103de366004612487565b61082d565b61031b7f000000000000000000000000000000000000000000000000000000000000000081565b6103596104183660046124b3565b6108c1565b6102df61042b366004612359565b60146020526000908152604090205481565b61035961098c565b6103596104533660046123e8565b61099d565b60015461031b906001600160a01b031681565b610359610a28565b60055461031b906001600160a01b031681565b6103596104943660046124cc565b610a37565b60045461031b906001600160a01b031681565b6103596104ba366004612359565b610a9e565b6104c7610cc6565b6040516102e99190612505565b61031b7f000000000000000000000000000000000000000000000000000000000000000081565b610359610509366004612359565b610d28565b61035961051c36600461259e565b610d34565b61035961052f36600461260a565b610e41565b610359610eac565b60005461031b906001600160a01b031681565b6102df60035481565b610359610566366004612359565b610f96565b6102df610579366004612359565b600e6020526000908152604090205481565b61035961059936600461260a565b611051565b6103596105ac366004612359565b6110b7565b61031b6105bf366004612359565b61116a565b6102df6105d2366004612359565b600a6020526000908152604090205481565b61031b6105f2366004612359565b6009602052600090815260409020546001600160a01b031681565b61037e61061b366004612359565b600f6020526000908152604090205460ff1681565b61035961063e366004612359565b6116e7565b61031b6106513660046124b3565b611711565b610359610664366004612487565b61173b565b610359610677366004612359565b6117ab565b61031b61068a366004612359565b6007602052600090815260409020546001600160a01b031681565b61031b6106b3366004612487565b61190d565b6103596106c6366004612359565b611945565b6102df6106d93660046124cc565b600b60209081526000928352604080842090915290825290205481565b6103596107043660046123e8565b61197e565b6103596119be565b61035961071f366004612359565b611a4e565b6103596107323660046123e8565b611a78565b61073f611b0e565b600180546001600160a01b0319166001600160a01b0383169081179091556040519081527f906a1c6bd7e3091ea86693dd029a831c19049ce77f1dce2ce0bab1cacbabce229060200160405180910390a150565b60005b8151811015610829578181815181106107b1576107b161262c565b602090810291909101015160405163ef0d090f60e01b81523360048201526001600160a01b039091169063ef0d090f90602401600060405180830381600087803b1580156107fe57600080fd5b505af1158015610812573d6000803e3d6000fd5b50505050808061082190612658565b915050610796565b5050565b336000908152600f602052604090205460ff1661084957600080fd5b3360009081526010602052604090205460ff1661086557600080fd5b336000818152600860209081526040918290205482516001600160a01b0387811682529281018690529116917f7cfff908a4b583f36430b25d75964c458d8ede8a99bd61be750e97ee1b2f3a9691015b60405180910390a35050565b6108ed7f0000000000000000000000000000000000000000000000000000000000000000333084611b38565b60035460009061090583670de0b6b3a7640000612671565b61090f9190612690565b9050801561092f57806012600082825461092991906126b2565b90915550505b6040518281526001600160a01b037f0000000000000000000000000000000000000000000000000000000000000000169033907ff70d5c697de7ea828df48e5c4573cb2194c659f1901f70110c52b066dcf50826906020016108b5565b60065461099b90600090610e41565b565b60005b8151811015610829578181815181106109bb576109bb61262c565b60200260200101516001600160a01b031663dfb89c376040518163ffffffff1660e01b8152600401600060405180830381600087803b1580156109fd57600080fd5b505af1158015610a11573d6000803e3d6000fd5b505050508080610a2090612658565b9150506109a0565b60065461099b90600090611051565b610a3f611c28565b604051639c9b2e2160e01b81526001600160a01b038281166004830152831690639c9b2e2190602401600060405180830381600087803b158015610a8257600080fd5b505af1158015610a96573d6000803e3d6000fd5b505050505050565b601154600114610aad57600080fd5b60026011819055546040805163ed29fc1160e01b815290516001600160a01b039092169163ed29fc119160048082019260209290919082900301816000875af1158015610afe573d6000803e3d6000fd5b505050506040513d601f19601f82011682018060405250810190610b2291906126ca565b50610b2c81611c67565b6001600160a01b0381811660008181526014602052604090819020549051634cde602960e11b81527f00000000000000000000000000000000000000000000000000000000000000009093166004840152916399bcc05290602401602060405180830381865afa158015610ba4573d6000803e3d6000fd5b505050506040513d601f19601f82011682018060405250810190610bc891906126ca565b81118015610be257506000610be062093a8083612690565b115b15610cbd576001600160a01b03828116600081815260146020526040808220919091555163b66503cf60e01b81527f00000000000000000000000000000000000000000000000000000000000000009092166004830152602482018390529063b66503cf90604401600060405180830381600087803b158015610c6457600080fd5b505af1158015610c78573d6000803e3d6000fd5b50506040518381526001600160a01b03851692503391507f4fa9693cae526341d334e2862ca2413b2e503f1266255f9e0869fb36e6d89b179060200160405180910390a35b50506001601155565b60606006805480602002602001604051908101604052809291908181526020018280548015610d1e57602002820191906000526020600020905b81546001600160a01b03168152600190910190602001808311610d00575b5050505050905090565b610d3181611c67565b50565b336000818152600e602052604090205462093a80610d528142612690565b610d5c9190612671565b11610dae5760405162461bcd60e51b815260206004820181905260248201527f4143434f554e545f414c52454144595f564f5445445f544849535f45504f434860448201526064015b60405180910390fd5b838214610dba57600080fd5b336000818152600e602090815260409182902042905581518782028181018301909352878152610e3a939290918991899182919085019084908082843760009201919091525050604080516020808a02828101820190935289825290935089925088918291850190849080828437600092019190915250611d6892505050565b5050505050565b815b81811015610ea757610e956007600060068481548110610e6557610e6561262c565b60009182526020808320909101546001600160a01b03908116845290830193909352604090910190205416610a9e565b80610e9f81612658565b915050610e43565b505050565b6001546001600160a01b03163314610f245760405162461bcd60e51b815260206004820152603560248201527f596f75206d757374206265206e6f6d696e61746564206265666f726520796f7560448201527402063616e20616363657074206f776e65727368697605c1b6064820152608401610da5565b600054600154604080516001600160a01b0393841681529290911660208301527fb532073b38c83145e3e5135377a08bf9aab55bc0fd7c1179cd4fb995d2a5159c910160405180910390a160018054600080546001600160a01b03199081166001600160a01b03841617909155169055565b610f9e611b0e565b6001600160a01b03811660009081526010602052604090205460ff16610ffb5760405162461bcd60e51b815260206004820152601260248201527119d85d59d948185b1c9958591e481919585960721b6044820152606401610da5565b6001600160a01b0381166000818152601060209081526040808320805460ff191690556014909152808220829055517f04a5d3f5d80d22d9345acc80618f4a4e7e663cf9e1aed23b57d975acec002ba79190a250565b815b81811015610ea7576110a560076000600684815481106110755761107561262c565b60009182526020808320909101546001600160a01b03908116845290830193909352604090910190205416611c67565b806110af81612658565b915050611053565b6110bf611b0e565b6001600160a01b03811660009081526010602052604090205460ff161561111e5760405162461bcd60e51b8152602060048201526013602482015272676175676520616c726561647920616c69766560681b6044820152606401610da5565b6001600160a01b038116600081815260106020526040808220805460ff19166001179055517fed18e9faa3dccfd8aa45f69c4de40546b2ca9cccc4538a2323531656516db1aa9190a250565b6000611174611c28565b6001600160a01b0382811660009081526007602052604090205416156111c55760405162461bcd60e51b815260206004820152600660248201526565786973747360d01b6044820152606401610da5565b604051631e533a8f60e21b81523060048201526001600160a01b0383811660248301526000917f00000000000000000000000000000000000000000000000000000000000000009091169063794cea3c906044016020604051808303816000875af1158015611238573d6000803e3d6000fd5b505050506040513d601f19601f8201168201806040525081019061125c91906126e3565b604051639c9b2e2160e01b81526001600160a01b037f00000000000000000000000000000000000000000000000000000000000000008116600483015291925090821690639c9b2e2190602401600060405180830381600087803b1580156112c357600080fd5b505af11580156112d7573d6000803e3d6000fd5b50506040516355a68ed360e01b81526001600160a01b038481166004830152861692506355a68ed39150602401600060405180830381600087803b15801561131e57600080fd5b505af1158015611332573d6000803e3d6000fd5b505060405163095ea7b360e01b81526001600160a01b03848116600483015260001960248301527f000000000000000000000000000000000000000000000000000000000000000016925063095ea7b391506044016020604051808303816000875af11580156113a6573d6000803e3d6000fd5b505050506040513d601f19601f820116820180604052508101906113ca9190612700565b50604051631af469cb60e21b81523060048201526000907f00000000000000000000000000000000000000000000000000000000000000006001600160a01b031690636bd1a72c906024016020604051808303816000875af1158015611434573d6000803e3d6000fd5b505050506040513d601f19601f8201168201806040525081019061145891906126e3565b90506000846001600160a01b031663e33ca8396040518163ffffffff1660e01b8152600401600060405180830381865afa15801561149a573d6000803e3d6000fd5b505050506040513d6000823e601f3d908101601f191682016040526114c29190810190612722565b905060005b815181101561156957826001600160a01b0316639c9b2e218383815181106114f1576114f161262c565b60200260200101516040518263ffffffff1660e01b815260040161152491906001600160a01b0391909116815260200190565b600060405180830381600087803b15801561153e57600080fd5b505af1158015611552573d6000803e3d6000fd5b50505050808061156190612658565b9150506114c7565b5060405163740ef7e760e11b81526001600160a01b03838116600483015286169063e81defce90602401600060405180830381600087803b1580156115ad57600080fd5b505af11580156115c1573d6000803e3d6000fd5b5050506001600160a01b0380871660008181526007602090815260408083208054868b166001600160a01b03199182168117909255600984528285208054978b16978216979097179096558352600882528083208054909516909317909355600f8352818120805460ff199081166001908117909255601090945291902080549092161790555061165183611c67565b600680546001810182556000919091527ff652222313e28459528d920b65115c16c04f3efc82aaedc97be59f3f377c0d3f0180546001600160a01b0319166001600160a01b03878116918217909255604080513381528584166020820152928616927f48d3c521fd0d5541640f58c6d6381eed7cb2e8c9df421ae165a4f4c2d221ee0d910160405180910390a350909392505050565b6116ef611b0e565b600580546001600160a01b0319166001600160a01b0392909216919091179055565b6006818154811061172157600080fd5b6000918252602090912001546001600160a01b0316905081565b336000908152600f602052604090205460ff1661175757600080fd5b336000818152600860209081526040918290205482516001600160a01b0387811682529281018690529116917f3115d1449a7b732c986cba18244e897a450f61e1bb8d589cd2e69e6c8924f9f791016108b5565b6001600160a01b0381166000908152600c602090815260408083208054825181850281018501909352808352919290919083018282801561181557602002820191906000526020600020905b81546001600160a01b031681526001909101906020018083116117f7575b5050505050905060008151905060008167ffffffffffffffff81111561183d5761183d61237d565b604051908082528060200260200182016040528015611866578160200160208202803683370190505b50905060005b828110156118fb576001600160a01b0385166000908152600b6020526040812085519091908690849081106118a3576118a361262c565b60200260200101516001600160a01b03166001600160a01b03168152602001908152602001600020548282815181106118de576118de61262c565b6020908102919091010152806118f381612658565b91505061186c565b50611907848483611d68565b50505050565b600c602052816000526040600020818154811061192957600080fd5b6000918252602090912001546001600160a01b03169150829050565b6002546001600160a01b0316331461195c57600080fd5b600280546001600160a01b0319166001600160a01b0392909216919091179055565b60005b8151811015610829576119ac82828151811061199f5761199f61262c565b6020026020010151611c67565b806119b681612658565b915050611981565b336000818152600e602052604090205462093a806119dc8142612690565b6119e69190612671565b11611a335760405162461bcd60e51b815260206004820181905260248201527f4143434f554e545f414c52454144595f564f5445445f544849535f45504f43486044820152606401610da5565b336000818152600e60205260409020429055610829816120e5565b611a56611b0e565b600480546001600160a01b0319166001600160a01b0392909216919091179055565b60005b815181101561082957818181518110611a9657611a9661262c565b6020908102919091010151604051630c00007b60e41b81523360048201526001600160a01b039091169063c00007b090602401600060405180830381600087803b158015611ae357600080fd5b505af1158015611af7573d6000803e3d6000fd5b505050508080611b0690612658565b915050611a7b565b6000546001600160a01b0316331461099b5760405162461bcd60e51b8152600401610da5906127b1565b6000846001600160a01b03163b11611b4f57600080fd5b604080516001600160a01b0385811660248301528481166044830152606480830185905283518084039091018152608490920183526020820180516001600160e01b03166323b872dd60e01b1790529151600092839290881691611bb39190612800565b6000604051808303816000865af19150503d8060008114611bf0576040519150601f19603f3d011682016040523d82523d6000602084013e611bf5565b606091505b5091509150818015611c1f575080511580611c1f575080806020019051810190611c1f9190612700565b610a9657600080fd5b6000546001600160a01b0316331480611c4b57506005546001600160a01b031633145b61099b5760405162461bcd60e51b8152600401610da5906127b1565b6001600160a01b03808216600090815260086020908152604080832054909316808352600a909152919020548015611d47576001600160a01b038316600090815260136020526040812080546012549182905591611cc5838361283b565b90508015610a96576000670de0b6b3a7640000611ce28387612671565b611cec9190612690565b6001600160a01b03881660009081526010602052604090205490915060ff1615611d3e576001600160a01b03871660009081526014602052604081208054839290611d389084906126b2565b90915550505b50505050505050565b6012546001600160a01b038416600090815260136020526040902055505050565b611d71836120e5565b81516040516370a0823160e01b81526001600160a01b0385811660048301526000917f0000000000000000000000000000000000000000000000000000000000000000909116906370a0823190602401602060405180830381865afa158015611dde573d6000803e3d6000fd5b505050506040513d601f19601f82011682018060405250810190611e0291906126ca565b90506000806000805b85811015611e4c57868181518110611e2557611e2561262c565b602002602001015184611e3891906126b2565b935080611e4481612658565b915050611e0b565b5060005b858110156120a8576000888281518110611e6c57611e6c61262c565b6020908102919091018101516001600160a01b03808216600090815260078452604080822054909216808252600f909452205490925060ff161561209357600086888b8681518110611ec057611ec061262c565b6020026020010151611ed29190612671565b611edc9190612690565b6001600160a01b03808e166000908152600b602090815260408083209388168352929052205490915015611f0f57600080fd5b80600003611f1c57600080fd5b611f2582611c67565b6001600160a01b038c81166000908152600c6020908152604080832080546001810182559084528284200180546001600160a01b0319169488169485179055928252600a90529081208054839290611f7e9084906126b2565b90915550506001600160a01b03808d166000908152600b6020908152604080832093871683529290529081208054839290611fba9084906126b2565b90915550506001600160a01b0380841660009081526009602052604090819020549051630463cd9760e41b8152600481018490528e8316602482015291169063463cd97090604401600060405180830381600087803b15801561201c57600080fd5b505af1158015612030573d6000803e3d6000fd5b50505050808561204091906126b2565b945061204c81876126b2565b95508b6001600160a01b03167f4d99b957a2bc29a30ebd96a7be8e68fe50a3c701db28a91436490b7d53870ca48260405161208991815260200190565b60405180910390a2505b505080806120a090612658565b915050611e50565b5081600360008282546120bb91906126b2565b90915550506001600160a01b039097166000908152600d6020526040902096909655505050505050565b6001600160a01b0381166000908152600c6020526040812080549091805b828110156122d957600084828154811061211f5761211f61262c565b60009182526020808320909101546001600160a01b038981168452600b835260408085209190921680855292529091205490915080156122c4576001600160a01b0380831660009081526007602052604090205461217d9116611c67565b6001600160a01b0382166000908152600a6020526040812080548392906121a590849061283b565b90915550506001600160a01b038088166000908152600b60209081526040808320938616835292905290812080548392906121e190849061283b565b90915550508015612274576001600160a01b038281166000908152600960205260409081902054905163293311ab60e01b815260048101849052898316602482015291169063293311ab90604401600060405180830381600087803b15801561224957600080fd5b505af115801561225d573d6000803e3d6000fd5b50505050808461226d91906126b2565b9350612281565b61227e818561283b565b93505b604080516001600160a01b0389168152602081018390527f433fa8b9e8e2cb00bd714503252e8bfd144f0f318459a2ea8b39c1ae25361717910160405180910390a15b505080806122d190612658565b915050612103565b5080600360008282546122ec919061283b565b90915550506001600160a01b0384166000908152600d60209081526040808320839055600c825282208054838255908352912061190791610d3191908101905b80821115612340576000815560010161232c565b5090565b6001600160a01b0381168114610d3157600080fd5b60006020828403121561236b57600080fd5b813561237681612344565b9392505050565b634e487b7160e01b600052604160045260246000fd5b604051601f8201601f1916810167ffffffffffffffff811182821017156123bc576123bc61237d565b604052919050565b600067ffffffffffffffff8211156123de576123de61237d565b5060051b60200190565b600060208083850312156123fb57600080fd5b823567ffffffffffffffff81111561241257600080fd5b8301601f8101851361242357600080fd5b8035612436612431826123c4565b612393565b81815260059190911b8201830190838101908783111561245557600080fd5b928401925b8284101561247c57833561246d81612344565b8252928401929084019061245a565b979650505050505050565b6000806040838503121561249a57600080fd5b82356124a581612344565b946020939093013593505050565b6000602082840312156124c557600080fd5b5035919050565b600080604083850312156124df57600080fd5b82356124ea81612344565b915060208301356124fa81612344565b809150509250929050565b6020808252825182820181905260009190848201906040850190845b818110156125465783516001600160a01b031683529284019291840191600101612521565b50909695505050505050565b60008083601f84011261256457600080fd5b50813567ffffffffffffffff81111561257c57600080fd5b6020830191508360208260051b850101111561259757600080fd5b9250929050565b600080600080604085870312156125b457600080fd5b843567ffffffffffffffff808211156125cc57600080fd5b6125d888838901612552565b909650945060208701359150808211156125f157600080fd5b506125fe87828801612552565b95989497509550505050565b6000806040838503121561261d57600080fd5b50508035926020909101359150565b634e487b7160e01b600052603260045260246000fd5b634e487b7160e01b600052601160045260246000fd5b60006001820161266a5761266a612642565b5060010190565b600081600019048311821515161561268b5761268b612642565b500290565b6000826126ad57634e487b7160e01b600052601260045260246000fd5b500490565b600082198211156126c5576126c5612642565b500190565b6000602082840312156126dc57600080fd5b5051919050565b6000602082840312156126f557600080fd5b815161237681612344565b60006020828403121561271257600080fd5b8151801515811461237657600080fd5b6000602080838503121561273557600080fd5b825167ffffffffffffffff81111561274c57600080fd5b8301601f8101851361275d57600080fd5b805161276b612431826123c4565b81815260059190911b8201830190838101908783111561278a57600080fd5b928401925b8284101561247c5783516127a281612344565b8252928401929084019061278f565b6020808252602f908201527f4f6e6c792074686520636f6e7472616374206f776e6572206d6179207065726660408201526e37b936903a3434b99030b1ba34b7b760891b606082015260800190565b6000825160005b818110156128215760208186018101518583015201612807565b81811115612830576000828501525b509190910192915050565b60008282101561284d5761284d612642565b50039056fea2646970667358221220155b25b02eada45e90d55d2bc74f25165b7d9c5e395868587d1617941e2179a364736f6c634300080d0033",
  "linkReferences": {},
  "deployedLinkReferences": {}
}