{
  "_format": "hh-sol-artifact-1",
  "contractName": "vSOUL",
  "sourceName": "contracts/vSOUL.sol",
  "abi": [
    {
      "inputs": [
        {
          "internalType": "address",
          "name": "_SOUL",
          "type": "address"
        },
        {
          "internalType": "address",
          "name": "_oSOUL",
          "type": "address"
        }
      ],
      "stateMutability": "nonpayable",
      "type": "constructor"
    },
    {
      "anonymous": false,
      "inputs": [
        {
          "indexed": true,
          "internalType": "address",
          "name": "account",
          "type": "address"
        },
        {
          "indexed": false,
          "internalType": "uint256",
          "name": "amount",
          "type": "uint256"
        }
      ],
      "name": "Burned",
      "type": "event"
    },
    {
      "anonymous": false,
      "inputs": [
        {
          "indexed": true,
          "internalType": "address",
          "name": "burner",
          "type": "address"
        },
        {
          "indexed": true,
          "internalType": "address",
          "name": "account",
          "type": "address"
        },
        {
          "indexed": false,
          "internalType": "uint256",
          "name": "amount",
          "type": "uint256"
        }
      ],
      "name": "BurnedFor",
      "type": "event"
    },
    {
      "anonymous": false,
      "inputs": [
        {
          "indexed": true,
          "internalType": "address",
          "name": "account",
          "type": "address"
        },
        {
          "indexed": false,
          "internalType": "uint256",
          "name": "amount",
          "type": "uint256"
        }
      ],
      "name": "Deposited",
      "type": "event"
    },
    {
      "anonymous": false,
      "inputs": [
        {
          "indexed": false,
          "internalType": "address",
          "name": "oldOwner",
          "type": "address"
        },
        {
          "indexed": false,
          "internalType": "address",
          "name": "newOwner",
          "type": "address"
        }
      ],
      "name": "OwnerChanged",
      "type": "event"
    },
    {
      "anonymous": false,
      "inputs": [
        {
          "indexed": false,
          "internalType": "address",
          "name": "newOwner",
          "type": "address"
        }
      ],
      "name": "OwnerNominated",
      "type": "event"
    },
    {
      "anonymous": false,
      "inputs": [
        {
          "indexed": false,
          "internalType": "address",
          "name": "reward",
          "type": "address"
        }
      ],
      "name": "RewardAdded",
      "type": "event"
    },
    {
      "anonymous": false,
      "inputs": [
        {
          "indexed": false,
          "internalType": "uint256",
          "name": "reward",
          "type": "uint256"
        }
      ],
      "name": "RewardNotified",
      "type": "event"
    },
    {
      "anonymous": false,
      "inputs": [
        {
          "indexed": true,
          "internalType": "address",
          "name": "account",
          "type": "address"
        },
        {
          "indexed": true,
          "internalType": "address",
          "name": "rewardsToken",
          "type": "address"
        },
        {
          "indexed": false,
          "internalType": "uint256",
          "name": "reward",
          "type": "uint256"
        }
      ],
      "name": "RewardPaid",
      "type": "event"
    },
    {
      "anonymous": false,
      "inputs": [
        {
          "indexed": true,
          "internalType": "address",
          "name": "account",
          "type": "address"
        },
        {
          "indexed": false,
          "internalType": "uint256",
          "name": "amount",
          "type": "uint256"
        }
      ],
      "name": "Withdrawn",
      "type": "event"
    },
    {
      "inputs": [],
      "name": "DURATION",
      "outputs": [
        {
          "internalType": "uint256",
          "name": "",
          "type": "uint256"
        }
      ],
      "stateMutability": "view",
      "type": "function"
    },
    {
      "inputs": [],
      "name": "SOUL",
      "outputs": [
        {
          "internalType": "contract IERC20",
          "name": "",
          "type": "address"
        }
      ],
      "stateMutability": "view",
      "type": "function"
    },
    {
      "inputs": [],
      "name": "acceptOwnership",
      "outputs": [],
      "stateMutability": "nonpayable",
      "type": "function"
    },
    {
      "inputs": [
        {
          "internalType": "address",
          "name": "_rewardsToken",
          "type": "address"
        }
      ],
      "name": "addReward",
      "outputs": [],
      "stateMutability": "nonpayable",
      "type": "function"
    },
    {
      "inputs": [
        {
          "internalType": "address",
          "name": "account",
          "type": "address"
        }
      ],
      "name": "balanceOf",
      "outputs": [
        {
          "internalType": "uint256",
          "name": "",
          "type": "uint256"
        }
      ],
      "stateMutability": "view",
      "type": "function"
    },
    {
      "inputs": [
        {
          "internalType": "address",
          "name": "account",
          "type": "address"
        }
      ],
      "name": "balanceOfOSOUL",
      "outputs": [
        {
          "internalType": "uint256",
          "name": "",
          "type": "uint256"
        }
      ],
      "stateMutability": "view",
      "type": "function"
    },
    {
      "inputs": [
        {
          "internalType": "address",
          "name": "account",
          "type": "address"
        }
      ],
      "name": "balanceOfSOUL",
      "outputs": [
        {
          "internalType": "uint256",
          "name": "",
          "type": "uint256"
        }
      ],
      "stateMutability": "view",
      "type": "function"
    },
    {
      "inputs": [
        {
          "internalType": "uint256",
          "name": "amountOSOUL",
          "type": "uint256"
        }
      ],
      "name": "burn",
      "outputs": [],
      "stateMutability": "nonpayable",
      "type": "function"
    },
    {
      "inputs": [
        {
          "internalType": "address",
          "name": "account",
          "type": "address"
        },
        {
          "internalType": "uint256",
          "name": "amountOSOUL",
          "type": "uint256"
        }
      ],
      "name": "burnFor",
      "outputs": [],
      "stateMutability": "nonpayable",
      "type": "function"
    },
    {
      "inputs": [
        {
          "internalType": "uint256",
          "name": "amount",
          "type": "uint256"
        }
      ],
      "name": "deposit",
      "outputs": [],
      "stateMutability": "nonpayable",
      "type": "function"
    },
    {
      "inputs": [
        {
          "internalType": "address",
          "name": "account",
          "type": "address"
        },
        {
          "internalType": "address",
          "name": "_rewardsToken",
          "type": "address"
        }
      ],
      "name": "earned",
      "outputs": [
        {
          "internalType": "uint256",
          "name": "",
          "type": "uint256"
        }
      ],
      "stateMutability": "view",
      "type": "function"
    },
    {
      "inputs": [],
      "name": "getReward",
      "outputs": [],
      "stateMutability": "nonpayable",
      "type": "function"
    },
    {
      "inputs": [
        {
          "internalType": "address",
          "name": "_rewardsToken",
          "type": "address"
        }
      ],
      "name": "getRewardForDuration",
      "outputs": [
        {
          "internalType": "uint256",
          "name": "",
          "type": "uint256"
        }
      ],
      "stateMutability": "view",
      "type": "function"
    },
    {
      "inputs": [
        {
          "internalType": "address",
          "name": "",
          "type": "address"
        }
      ],
      "name": "isRewardToken",
      "outputs": [
        {
          "internalType": "bool",
          "name": "",
          "type": "bool"
        }
      ],
      "stateMutability": "view",
      "type": "function"
    },
    {
      "inputs": [
        {
          "internalType": "address",
          "name": "_rewardsToken",
          "type": "address"
        }
      ],
      "name": "lastTimeRewardApplicable",
      "outputs": [
        {
          "internalType": "uint256",
          "name": "",
          "type": "uint256"
        }
      ],
      "stateMutability": "view",
      "type": "function"
    },
    {
      "inputs": [
        {
          "internalType": "address",
          "name": "_owner",
          "type": "address"
        }
      ],
      "name": "nominateNewOwner",
      "outputs": [],
      "stateMutability": "nonpayable",
      "type": "function"
    },
    {
      "inputs": [],
      "name": "nominatedOwner",
      "outputs": [
        {
          "internalType": "address",
          "name": "",
          "type": "address"
        }
      ],
      "stateMutability": "view",
      "type": "function"
    },
    {
      "inputs": [
        {
          "internalType": "address",
          "name": "_rewardsToken",
          "type": "address"
        },
        {
          "internalType": "uint256",
          "name": "reward",
          "type": "uint256"
        }
      ],
      "name": "notifyRewardAmount",
      "outputs": [],
      "stateMutability": "nonpayable",
      "type": "function"
    },
    {
      "inputs": [],
      "name": "oSOUL",
      "outputs": [
        {
          "internalType": "contract IERC20",
          "name": "",
          "type": "address"
        }
      ],
      "stateMutability": "view",
      "type": "function"
    },
    {
      "inputs": [],
      "name": "owner",
      "outputs": [
        {
          "internalType": "address",
          "name": "",
          "type": "address"
        }
      ],
      "stateMutability": "view",
      "type": "function"
    },
    {
      "inputs": [
        {
          "internalType": "address",
          "name": "",
          "type": "address"
        }
      ],
      "name": "rewardData",
      "outputs": [
        {
          "internalType": "uint256",
          "name": "periodFinish",
          "type": "uint256"
        },
        {
          "internalType": "uint256",
          "name": "rewardRate",
          "type": "uint256"
        },
        {
          "internalType": "uint256",
          "name": "lastUpdateTime",
          "type": "uint256"
        },
        {
          "internalType": "uint256",
          "name": "rewardPerTokenStored",
          "type": "uint256"
        }
      ],
      "stateMutability": "view",
      "type": "function"
    },
    {
      "inputs": [
        {
          "internalType": "address",
          "name": "_rewardsToken",
          "type": "address"
        }
      ],
      "name": "rewardPerToken",
      "outputs": [
        {
          "internalType": "uint256",
          "name": "",
          "type": "uint256"
        }
      ],
      "stateMutability": "view",
      "type": "function"
    },
    {
      "inputs": [
        {
          "internalType": "uint256",
          "name": "",
          "type": "uint256"
        }
      ],
      "name": "rewardTokens",
      "outputs": [
        {
          "internalType": "address",
          "name": "",
          "type": "address"
        }
      ],
      "stateMutability": "view",
      "type": "function"
    },
    {
      "inputs": [
        {
          "internalType": "address",
          "name": "",
          "type": "address"
        },
        {
          "internalType": "address",
          "name": "",
          "type": "address"
        }
      ],
      "name": "rewards",
      "outputs": [
        {
          "internalType": "uint256",
          "name": "",
          "type": "uint256"
        }
      ],
      "stateMutability": "view",
      "type": "function"
    },
    {
      "inputs": [
        {
          "internalType": "address",
          "name": "_voter",
          "type": "address"
        }
      ],
      "name": "setVoter",
      "outputs": [],
      "stateMutability": "nonpayable",
      "type": "function"
    },
    {
      "inputs": [],
      "name": "totalSupply",
      "outputs": [
        {
          "internalType": "uint256",
          "name": "",
          "type": "uint256"
        }
      ],
      "stateMutability": "view",
      "type": "function"
    },
    {
      "inputs": [],
      "name": "totalSupplyOSOUL",
      "outputs": [
        {
          "internalType": "uint256",
          "name": "",
          "type": "uint256"
        }
      ],
      "stateMutability": "view",
      "type": "function"
    },
    {
      "inputs": [],
      "name": "totalSupplySOUL",
      "outputs": [
        {
          "internalType": "uint256",
          "name": "",
          "type": "uint256"
        }
      ],
      "stateMutability": "view",
      "type": "function"
    },
    {
      "inputs": [
        {
          "internalType": "address",
          "name": "",
          "type": "address"
        },
        {
          "internalType": "address",
          "name": "",
          "type": "address"
        }
      ],
      "name": "userRewardPerTokenPaid",
      "outputs": [
        {
          "internalType": "uint256",
          "name": "",
          "type": "uint256"
        }
      ],
      "stateMutability": "view",
      "type": "function"
    },
    {
      "inputs": [],
      "name": "voter",
      "outputs": [
        {
          "internalType": "address",
          "name": "",
          "type": "address"
        }
      ],
      "stateMutability": "view",
      "type": "function"
    },
    {
      "inputs": [
        {
          "internalType": "uint256",
          "name": "amount",
          "type": "uint256"
        }
      ],
      "name": "withdraw",
      "outputs": [],
      "stateMutability": "nonpayable",
      "type": "function"
    }
  ],
  "bytecode": "0x60806040523480156200001157600080fd5b50604051620020c6380380620020c6833981016040819052620000349162000135565b600160005533806200008c5760405162461bcd60e51b815260206004820152601960248201527f4f776e657220616464726573732063616e6e6f74206265203000000000000000604482015260640160405180910390fd5b600180546001600160a01b0319166001600160a01b038316908117909155604080516000815260208101929092527fb532073b38c83145e3e5135377a08bf9aab55bc0fd7c1179cd4fb995d2a5159c910160405180910390a150600480546001600160a01b039384166001600160a01b031991821617909155600580549290931691161790556200016d565b80516001600160a01b03811681146200013057600080fd5b919050565b600080604083850312156200014957600080fd5b620001548362000118565b9150620001646020840162000118565b90509250929050565b611f49806200017d6000396000f3fe608060405234801561001057600080fd5b50600436106101e55760003560e01c806379ba50971161010f578063bcd11014116100a2578063e70b9e2711610071578063e70b9e2714610464578063f12297771461048f578063f1e49930146104a2578063f6ae1da8146104b557600080fd5b8063bcd1101414610423578063c559f84314610436578063c633a6721461043e578063e402ceeb1461045157600080fd5b80639c9b2e21116100de5780639c9b2e21146103b7578063b5fd73f8146103ca578063b66503cf146103fd578063b6b55f251461041057600080fd5b806379ba5097146103815780637bb7bed1146103895780638da5cb5b1461039c5780639b461d01146103af57600080fd5b806342966c681161018757806353a47bb71161015657806353a47bb714610307578063638634ee1461031a5780637035ab981461032d57806370a082311461035857600080fd5b806342966c681461026157806346c96aac1461027457806348e5d9f81461029f5780634bc2a657146102f457600080fd5b80631dd319cb116101c35780631dd319cb14610220578063211dc32d146102335780632e1a7d4d146102465780633d18b9121461025957600080fd5b80631627540c146101ea57806318160ddd146101ff5780631be0528914610216575b600080fd5b6101fd6101f8366004611d17565b6104de565b005b600b545b6040519081526020015b60405180910390f35b61020362093a8081565b6101fd61022e366004611d32565b61053b565b610203610241366004611d5c565b6107c4565b6101fd610254366004611d8f565b61085c565b6101fd610c07565b6101fd61026f366004611d8f565b610e73565b600354610287906001600160a01b031681565b6040516001600160a01b03909116815260200161020d565b6102d46102ad366004611d17565b60066020526000908152604090208054600182015460028301546003909301549192909184565b60408051948552602085019390935291830152606082015260800161020d565b6101fd610302366004611d17565b611098565b600254610287906001600160a01b031681565b610203610328366004611d17565b6110c2565b61020361033b366004611d5c565b600960209081526000928352604080842090915290825290205481565b610203610366366004611d17565b6001600160a01b03166000908152600c602052604090205490565b6101fd6110ec565b610287610397366004611d8f565b6111d6565b600154610287906001600160a01b031681565b610203611200565b6101fd6103c5366004611d17565b611217565b6103ed6103d8366004611d17565b60076020526000908152604090205460ff1681565b604051901515815260200161020d565b6101fd61040b366004611d32565b61131c565b6101fd61041e366004611d8f565b6115ea565b610203610431366004611d17565b61180a565b600d54610203565b600554610287906001600160a01b031681565b600454610287906001600160a01b031681565b610203610472366004611d5c565b600a60209081526000928352604080842090915290825290205481565b61020361049d366004611d17565b611834565b6102036104b0366004611d17565b6118e4565b6102036104c3366004611d17565b6001600160a01b03166000908152600e602052604090205490565b6104e6611912565b600280546001600160a01b0319166001600160a01b0383169081179091556040519081527f906a1c6bd7e3091ea86693dd029a831c19049ce77f1dce2ce0bab1cacbabce22906020015b60405180910390a150565b610543611984565b8160005b60085481101561063c5760006008828154811061056657610566611da8565b6000918252602090912001546001600160a01b0316905061058681611834565b6001600160a01b0382166000908152600660205260409020600301556105ab816110c2565b6001600160a01b03808316600090815260066020526040902060020191909155831615610629576105dc83826107c4565b6001600160a01b038085166000818152600a602090815260408083209487168084529482528083209590955560068152848220600301549282526009815284822093825292909252919020555b508061063481611dd4565b915050610547565b506001600160a01b03831661068d5760405162461bcd60e51b8152602060048201526012602482015271043616e6e6f74206275726e20746f203078360741b60448201526064015b60405180910390fd5b600082116106cd5760405162461bcd60e51b815260206004820152600d60248201526c043616e6e6f74206275726e203609c1b6044820152606401610684565b81600b60008282546106df9190611ded565b90915550506001600160a01b0383166000908152600c60205260408120805484929061070c908490611ded565b909155505060055460405163079cc67960e41b8152336004820152602481018490526001600160a01b03909116906379cc679090604401600060405180830381600087803b15801561075d57600080fd5b505af1158015610771573d6000803e3d6000fd5b50506040518481526001600160a01b03861692503391507f27d99300c6c6789f01bf643b2832d5f98653c4c2166dfce0a8ed822b049f30739060200160405180910390a3506107c06001600055565b5050565b6001600160a01b038083166000818152600a60209081526040808320948616808452948252808320549383526009825280832094835293905291822054670de0b6b3a76400009061081485611834565b61081e9190611e05565b6001600160a01b0386166000908152600c60205260409020546108419190611e1c565b61084b9190611e3b565b6108559190611ded565b9392505050565b610864611984565b3360005b60085481101561095d5760006008828154811061088757610887611da8565b6000918252602090912001546001600160a01b031690506108a781611834565b6001600160a01b0382166000908152600660205260409020600301556108cc816110c2565b6001600160a01b0380831660009081526006602052604090206002019190915583161561094a576108fd83826107c4565b6001600160a01b038085166000818152600a602090815260408083209487168084529482528083209590955560068152848220600301549282526009815284822093825292909252919020555b508061095581611dd4565b915050610868565b5033826109a05760405162461bcd60e51b8152602060048201526011602482015270043616e6e6f74207769746864726177203607c1b6044820152606401610684565b600354604051620be37960e21b81526001600160a01b03838116600483015290911690622f8de490602401602060405180830381865afa1580156109e8573d6000803e3d6000fd5b505050506040513d601f19601f82011682018060405250810190610a0c9190611e5d565b15610a4f5760405162461bcd60e51b8152602060048201526013602482015272159bdd195cc81b5d5cdd081899481c995cd95d606a1b6044820152606401610684565b82600b6000828254610a619190611e05565b90915550506001600160a01b0381166000908152600c602052604081208054859290610a8e908490611e05565b9250508190555082600d6000828254610aa79190611e05565b90915550506001600160a01b0381166000908152600e602052604081208054859290610ad4908490611e05565b90915550506004805460405163e6a706d160e01b81526001600160a01b038481169382019390935291169063e6a706d190602401602060405180830381865afa158015610b25573d6000803e3d6000fd5b505050506040513d601f19601f82011682018060405250810190610b499190611e5d565b6001600160a01b0382166000908152600e60205260409020541015610b9e5760405162461bcd60e51b815260206004820152600b60248201526a109bdc9c9bddc81919589d60aa1b6044820152606401610684565b600454610bb5906001600160a01b031633856119dd565b806001600160a01b03167f7084f5476618d8e60b11ef0d7d3f06914655adb8793e28ff7f018d4c76d505d584604051610bf091815260200190565b60405180910390a25050610c046001600055565b50565b610c0f611984565b3360005b600854811015610d0857600060088281548110610c3257610c32611da8565b6000918252602090912001546001600160a01b03169050610c5281611834565b6001600160a01b038216600090815260066020526040902060030155610c77816110c2565b6001600160a01b03808316600090815260066020526040902060020191909155831615610cf557610ca883826107c4565b6001600160a01b038085166000818152600a602090815260408083209487168084529482528083209590955560068152848220600301549282526009815284822093825292909252919020555b5080610d0081611dd4565b915050610c13565b5060005b600854811015610dea57600060088281548110610d2b57610d2b611da8565b6000918252602080832090910154338352600a825260408084206001600160a01b03909216808552919092529120549091508015610dd557336000818152600a602090815260408083206001600160a01b0387168085529252822091909155610d9491836119dd565b6040518181526001600160a01b0383169033907f540798df468d7b23d11f156fdb954cb19ad414d150722a7b6d55ba369dea792e9060200160405180910390a35b50508080610de290611dd4565b915050610d0c565b50600d54600480546040516370a0823160e01b815230928101929092526001600160a01b0316906370a0823190602401602060405180830381865afa158015610e37573d6000803e3d6000fd5b505050506040513d601f19601f82011682018060405250810190610e5b9190611e5d565b1015610e6657600080fd5b50610e716001600055565b565b610e7b611984565b3360005b600854811015610f7457600060088281548110610e9e57610e9e611da8565b6000918252602090912001546001600160a01b03169050610ebe81611834565b6001600160a01b038216600090815260066020526040902060030155610ee3816110c2565b6001600160a01b03808316600090815260066020526040902060020191909155831615610f6157610f1483826107c4565b6001600160a01b038085166000818152600a602090815260408083209487168084529482528083209590955560068152848220600301549282526009815284822093825292909252919020555b5080610f6c81611dd4565b915050610e7f565b503382610fb35760405162461bcd60e51b815260206004820152600d60248201526c043616e6e6f74206275726e203609c1b6044820152606401610684565b82600b6000828254610fc59190611ded565b90915550506001600160a01b0381166000908152600c602052604081208054859290610ff2908490611ded565b909155505060055460405163079cc67960e41b81526001600160a01b03838116600483015260248201869052909116906379cc679090604401600060405180830381600087803b15801561104557600080fd5b505af1158015611059573d6000803e3d6000fd5b50505050806001600160a01b03167f696de425f79f4a40bc6d2122ca50507f0efbeabbff86a84871b7196ab8ea8df784604051610bf091815260200190565b6110a0611912565b600380546001600160a01b0319166001600160a01b0392909216919091179055565b6001600160a01b0381166000908152600660205260408120546110e6904290611a45565b92915050565b6002546001600160a01b031633146111645760405162461bcd60e51b815260206004820152603560248201527f596f75206d757374206265206e6f6d696e61746564206265666f726520796f7560448201527402063616e20616363657074206f776e65727368697605c1b6064820152608401610684565b600154600254604080516001600160a01b0393841681529290911660208301527fb532073b38c83145e3e5135377a08bf9aab55bc0fd7c1179cd4fb995d2a5159c910160405180910390a160028054600180546001600160a01b03199081166001600160a01b03841617909155169055565b600881815481106111e657600080fd5b6000918252602090912001546001600160a01b0316905081565b6000600d54600b546112129190611e05565b905090565b61121f611912565b6001600160a01b03811660009081526007602052604090205460ff16156112885760405162461bcd60e51b815260206004820152601b60248201527f52657761726420746f6b656e20616c72656164792065786973747300000000006044820152606401610684565b6008805460018082019092557ff3f7a9fe364faab93b216da50a3214154f22a0a2b415b23a84c8169e8b636ee30180546001600160a01b0319166001600160a01b038416908117909155600081815260076020908152604091829020805460ff1916909417909355519081527fb13fd610fe4e1b384966826794a9b2f6100ad031f352cc5ec6f22667f60749809101610530565b6000805b6008548110156114155760006008828154811061133f5761133f611da8565b6000918252602090912001546001600160a01b0316905061135f81611834565b6001600160a01b038216600090815260066020526040902060030155611384816110c2565b6001600160a01b03808316600090815260066020526040902060020191909155831615611402576113b583826107c4565b6001600160a01b038085166000818152600a602090815260408083209487168084529482528083209590955560068152848220600301549282526009815284822093825292909252919020555b508061140d81611dd4565b915050611320565b506001600160a01b03831660009081526007602052604090205460ff1661147e5760405162461bcd60e51b815260206004820152601960248201527f72657761726420746f6b656e206e6f74207665726966696564000000000000006044820152606401610684565b6114936001600160a01b038416333085611a5b565b6001600160a01b03831660009081526006602052604090205442106114e0576114bf62093a8083611e3b565b6001600160a01b038416600090815260066020526040902060010155611567565b6001600160a01b038316600090815260066020526040812054611504904290611e05565b6001600160a01b0385166000908152600660205260408120600101549192509061152e9083611e1c565b905062093a8061153e8286611ded565b6115489190611e3b565b6001600160a01b03861660009081526006602052604090206001015550505b6001600160a01b03831660009081526006602052604090204260029091018190556115969062093a8090611ded565b6001600160a01b03841660009081526006602090815260409182902092909255518381527ff9a5da3a173eca8cd77c02ece3ff1467b8aa461ed3822201817f2d72fbc54283910160405180910390a1505050565b6115f2611984565b3360005b6008548110156116eb5760006008828154811061161557611615611da8565b6000918252602090912001546001600160a01b0316905061163581611834565b6001600160a01b03821660009081526006602052604090206003015561165a816110c2565b6001600160a01b038083166000908152600660205260409020600201919091558316156116d85761168b83826107c4565b6001600160a01b038085166000818152600a602090815260408083209487168084529482528083209590955560068152848220600301549282526009815284822093825292909252919020555b50806116e381611dd4565b9150506115f6565b50338261172d5760405162461bcd60e51b815260206004820152601060248201526f043616e6e6f74206465706f73697420360841b6044820152606401610684565b82600b600082825461173f9190611ded565b90915550506001600160a01b0381166000908152600c60205260408120805485929061176c908490611ded565b9250508190555082600d60008282546117859190611ded565b90915550506001600160a01b0381166000908152600e6020526040812080548592906117b2908490611ded565b90915550506004546117cf906001600160a01b0316823086611a5b565b806001600160a01b03167f2da466a7b24304f47e87fa2e1e5a81b9831ce54fec19055ce277ca2f39ba42c484604051610bf091815260200190565b6001600160a01b0381166000908152600660205260408120600101546110e69062093a8090611e1c565b6000600b5460000361185f57506001600160a01b031660009081526006602052604090206003015490565b600b546001600160a01b0383166000908152600660205260409020600181015460029091015461188e856110c2565b6118989190611e05565b6118a29190611e1c565b6118b490670de0b6b3a7640000611e1c565b6118be9190611e3b565b6001600160a01b0383166000908152600660205260409020600301546110e69190611ded565b6001600160a01b0381166000908152600e6020908152604080832054600c9092528220546110e69190611e05565b6001546001600160a01b03163314610e715760405162461bcd60e51b815260206004820152602f60248201527f4f6e6c792074686520636f6e7472616374206f776e6572206d6179207065726660448201526e37b936903a3434b99030b1ba34b7b760891b6064820152608401610684565b6002600054036119d65760405162461bcd60e51b815260206004820152601f60248201527f5265656e7472616e637947756172643a207265656e7472616e742063616c6c006044820152606401610684565b6002600055565b6040516001600160a01b038316602482015260448101829052611a4090849063a9059cbb60e01b906064015b60408051601f198184030181529190526020810180516001600160e01b03166001600160e01b031990931692909217909152611a99565b505050565b6000818310611a545781610855565b5090919050565b6040516001600160a01b0380851660248301528316604482015260648101829052611a939085906323b872dd60e01b90608401611a09565b50505050565b6000611aee826040518060400160405280602081526020017f5361666545524332303a206c6f772d6c6576656c2063616c6c206661696c6564815250856001600160a01b0316611b6b9092919063ffffffff16565b805190915015611a405780806020019051810190611b0c9190611e76565b611a405760405162461bcd60e51b815260206004820152602a60248201527f5361666545524332303a204552433230206f7065726174696f6e20646964206e6044820152691bdd081cdd58d8d9595960b21b6064820152608401610684565b6060611b7a8484600085611b82565b949350505050565b606082471015611be35760405162461bcd60e51b815260206004820152602660248201527f416464726573733a20696e73756666696369656e742062616c616e636520666f6044820152651c8818d85b1b60d21b6064820152608401610684565b600080866001600160a01b03168587604051611bff9190611ec4565b60006040518083038185875af1925050503d8060008114611c3c576040519150601f19603f3d011682016040523d82523d6000602084013e611c41565b606091505b5091509150611c5287838387611c5d565b979650505050505050565b60608315611ccc578251600003611cc5576001600160a01b0385163b611cc55760405162461bcd60e51b815260206004820152601d60248201527f416464726573733a2063616c6c20746f206e6f6e2d636f6e74726163740000006044820152606401610684565b5081611b7a565b611b7a8383815115611ce15781518083602001fd5b8060405162461bcd60e51b81526004016106849190611ee0565b80356001600160a01b0381168114611d1257600080fd5b919050565b600060208284031215611d2957600080fd5b61085582611cfb565b60008060408385031215611d4557600080fd5b611d4e83611cfb565b946020939093013593505050565b60008060408385031215611d6f57600080fd5b611d7883611cfb565b9150611d8660208401611cfb565b90509250929050565b600060208284031215611da157600080fd5b5035919050565b634e487b7160e01b600052603260045260246000fd5b634e487b7160e01b600052601160045260246000fd5b600060018201611de657611de6611dbe565b5060010190565b60008219821115611e0057611e00611dbe565b500190565b600082821015611e1757611e17611dbe565b500390565b6000816000190483118215151615611e3657611e36611dbe565b500290565b600082611e5857634e487b7160e01b600052601260045260246000fd5b500490565b600060208284031215611e6f57600080fd5b5051919050565b600060208284031215611e8857600080fd5b8151801515811461085557600080fd5b60005b83811015611eb3578181015183820152602001611e9b565b83811115611a935750506000910152565b60008251611ed6818460208701611e98565b9190910192915050565b6020815260008251806020840152611eff816040850160208701611e98565b601f01601f1916919091016040019291505056fea2646970667358221220f5922dcb06f0ed2e79e650abf295b60388a5532d03847f54a24c52736cc21e8b64736f6c634300080d0033",
  "linkReferences": {},
  "deployedLinkReferences": {}
}